{
  "_format": "hh-sol-artifact-1",
  "contractName": "ChainDonorHub",
  "sourceName": "contracts/ChainDonorHub.sol",
  "abi": [
    {
      "inputs": [
        {
          "internalType": "address",
          "name": "_tokenAddress",
          "type": "address"
        }
      ],
      "stateMutability": "nonpayable",
      "type": "constructor"
    },
    {
      "anonymous": false,
      "inputs": [
        {
          "indexed": true,
          "internalType": "address",
          "name": "institution",
          "type": "address"
        },
        {
          "indexed": true,
          "internalType": "address",
          "name": "donor",
          "type": "address"
        },
        {
          "indexed": false,
          "internalType": "uint256",
          "name": "index",
          "type": "uint256"
        }
      ],
      "name": "DonationApproved",
      "type": "event"
    },
    {
      "anonymous": false,
      "inputs": [
        {
          "indexed": true,
          "internalType": "address",
          "name": "donor",
          "type": "address"
        },
        {
          "indexed": false,
          "internalType": "uint256",
          "name": "amount",
          "type": "uint256"
        }
      ],
      "name": "DonationClaimed",
      "type": "event"
    },
    {
      "anonymous": false,
      "inputs": [
        {
          "indexed": true,
          "internalType": "address",
          "name": "donor",
          "type": "address"
        },
        {
          "indexed": false,
          "internalType": "uint256",
          "name": "amount",
          "type": "uint256"
        }
      ],
      "name": "DonationCreated",
      "type": "event"
    },
    {
      "anonymous": false,
      "inputs": [
        {
          "indexed": false,
          "internalType": "address",
          "name": "institution",
          "type": "address"
        }
      ],
      "name": "InstitutionAdded",
      "type": "event"
    },
    {
      "anonymous": false,
      "inputs": [
        {
          "indexed": false,
          "internalType": "address",
          "name": "institution",
          "type": "address"
        }
      ],
      "name": "InstitutionRemoved",
      "type": "event"
    },
    {
      "anonymous": false,
      "inputs": [
        {
          "indexed": true,
          "internalType": "address",
          "name": "previousOwner",
          "type": "address"
        },
        {
          "indexed": true,
          "internalType": "address",
          "name": "newOwner",
          "type": "address"
        }
      ],
      "name": "OwnershipTransferred",
      "type": "event"
    },
    {
      "inputs": [
        {
          "internalType": "address",
          "name": "_institution",
          "type": "address"
        }
      ],
      "name": "addMedicalInstitution",
      "outputs": [],
      "stateMutability": "nonpayable",
      "type": "function"
    },
    {
      "inputs": [
        {
          "internalType": "address",
          "name": "_donor",
          "type": "address"
        },
        {
          "internalType": "uint256",
          "name": "_index",
          "type": "uint256"
        }
      ],
      "name": "approveDonation",
      "outputs": [],
      "stateMutability": "nonpayable",
      "type": "function"
    },
    {
      "inputs": [
        {
          "internalType": "uint256",
          "name": "_index",
          "type": "uint256"
        }
      ],
      "name": "claimReward",
      "outputs": [],
      "stateMutability": "nonpayable",
      "type": "function"
    },
    {
      "inputs": [
        {
          "internalType": "address",
          "name": "_donor",
          "type": "address"
        },
        {
          "internalType": "uint256",
          "name": "_amount",
          "type": "uint256"
        }
      ],
      "name": "createDonation",
      "outputs": [],
      "stateMutability": "nonpayable",
      "type": "function"
    },
    {
      "inputs": [
        {
          "internalType": "address",
          "name": "",
          "type": "address"
        },
        {
          "internalType": "uint256",
          "name": "",
          "type": "uint256"
        }
      ],
      "name": "donorDonations",
      "outputs": [
        {
          "internalType": "uint256",
          "name": "amount",
          "type": "uint256"
        },
        {
          "internalType": "uint256",
          "name": "approvals",
          "type": "uint256"
        },
        {
          "internalType": "bool",
          "name": "claimed",
          "type": "bool"
        }
      ],
      "stateMutability": "view",
      "type": "function"
    },
    {
      "inputs": [
        {
          "internalType": "uint256",
          "name": "",
          "type": "uint256"
        }
      ],
      "name": "donors",
      "outputs": [
        {
          "internalType": "bytes32",
          "name": "hashPersonalInfo",
          "type": "bytes32"
        },
        {
          "internalType": "address",
          "name": "wallet",
          "type": "address"
        },
        {
          "internalType": "bool",
          "name": "isDeleted",
          "type": "bool"
        }
      ],
      "stateMutability": "view",
      "type": "function"
    },
    {
      "inputs": [],
      "name": "getDonorCount",
      "outputs": [
        {
          "internalType": "uint256",
          "name": "",
          "type": "uint256"
        }
      ],
      "stateMutability": "view",
      "type": "function"
    },
    {
      "inputs": [
        {
          "internalType": "address",
          "name": "",
          "type": "address"
        }
      ],
      "name": "isDonor",
      "outputs": [
        {
          "internalType": "bool",
          "name": "",
          "type": "bool"
        }
      ],
      "stateMutability": "view",
      "type": "function"
    },
    {
      "inputs": [
        {
          "internalType": "address",
          "name": "",
          "type": "address"
        }
      ],
      "name": "isMedicalInstitution",
      "outputs": [
        {
          "internalType": "bool",
          "name": "",
          "type": "bool"
        }
      ],
      "stateMutability": "view",
      "type": "function"
    },
    {
      "inputs": [
        {
          "internalType": "uint256",
          "name": "",
          "type": "uint256"
        }
      ],
      "name": "medicalInstitutions",
      "outputs": [
        {
          "internalType": "address",
          "name": "wallet",
          "type": "address"
        },
        {
          "internalType": "bool",
          "name": "isDeleted",
          "type": "bool"
        }
      ],
      "stateMutability": "view",
      "type": "function"
    },
    {
      "inputs": [],
      "name": "owner",
      "outputs": [
        {
          "internalType": "address",
          "name": "",
          "type": "address"
        }
      ],
      "stateMutability": "view",
      "type": "function"
    },
    {
      "inputs": [
        {
          "internalType": "bytes32",
          "name": "_hashPersonalInfo",
          "type": "bytes32"
        }
      ],
      "name": "registerDonor",
      "outputs": [],
      "stateMutability": "nonpayable",
      "type": "function"
    },
    {
      "inputs": [],
      "name": "removeDonor",
      "outputs": [],
      "stateMutability": "nonpayable",
      "type": "function"
    },
    {
      "inputs": [
        {
          "internalType": "address",
          "name": "_institution",
          "type": "address"
        }
      ],
      "name": "removeMedicalInstitution",
      "outputs": [],
      "stateMutability": "nonpayable",
      "type": "function"
    },
    {
      "inputs": [],
      "name": "renounceOwnership",
      "outputs": [],
      "stateMutability": "nonpayable",
      "type": "function"
    },
    {
      "inputs": [],
      "name": "token",
      "outputs": [
        {
          "internalType": "contract BloodToken",
          "name": "",
          "type": "address"
        }
      ],
      "stateMutability": "view",
      "type": "function"
    },
    {
      "inputs": [],
      "name": "totalInstitutions",
      "outputs": [
        {
          "internalType": "uint256",
          "name": "",
          "type": "uint256"
        }
      ],
      "stateMutability": "view",
      "type": "function"
    },
    {
      "inputs": [
        {
          "internalType": "address",
          "name": "newOwner",
          "type": "address"
        }
      ],
      "name": "transferOwnership",
      "outputs": [],
      "stateMutability": "nonpayable",
      "type": "function"
    }
  ],
  "bytecode": "0x608060405260006005553480156200001657600080fd5b50604051620027c3380380620027c383398181016040528101906200003c9190620001da565b6200005c62000050620000a460201b60201c565b620000ac60201b60201c565b80600160006101000a81548173ffffffffffffffffffffffffffffffffffffffff021916908373ffffffffffffffffffffffffffffffffffffffff160217905550506200020c565b600033905090565b60008060009054906101000a900473ffffffffffffffffffffffffffffffffffffffff169050816000806101000a81548173ffffffffffffffffffffffffffffffffffffffff021916908373ffffffffffffffffffffffffffffffffffffffff1602179055508173ffffffffffffffffffffffffffffffffffffffff168173ffffffffffffffffffffffffffffffffffffffff167f8be0079c531659141344cd1fd0a4f28419497f9722a3daafe3b4186f6b6457e060405160405180910390a35050565b600080fd5b600073ffffffffffffffffffffffffffffffffffffffff82169050919050565b6000620001a28262000175565b9050919050565b620001b48162000195565b8114620001c057600080fd5b50565b600081519050620001d481620001a9565b92915050565b600060208284031215620001f357620001f262000170565b5b60006200020384828501620001c3565b91505092915050565b6125a7806200021c6000396000f3fe608060405234801561001057600080fd5b50600436106101165760003560e01c8063803111c9116100a2578063c54f7d2111610071578063c54f7d21146102bb578063e7df4c7f146102d9578063f2fde38b1461030a578063f92b1d1914610326578063fc0c546a1461034257610116565b8063803111c9146102495780638da5cb5b14610265578063acce223c14610283578063ae169a501461029f57610116565b80634395e1bf116100e95780634395e1bf146101a15780634abfa163146101d35780634b14eee71461020557806369bc2f1e14610221578063715018a61461023f57610116565b80631bd071151461011b5780632bc3d7aa146101375780633d4d4ef2146101675780634300362614610171575b600080fd5b61013560048036038101906101309190611a34565b610360565b005b610151600480360381019061014c9190611a34565b6105b4565b60405161015e9190611a7c565b60405180910390f35b61016f6105d4565b005b61018b60048036038101906101869190611a34565b610872565b6040516101989190611a7c565b60405180910390f35b6101bb60048036038101906101b69190611acd565b610892565b6040516101ca93929190611b1c565b60405180910390f35b6101ed60048036038101906101e89190611b53565b6108e6565b6040516101fc93929190611ba8565b60405180910390f35b61021f600480360381019061021a9190611a34565b61094d565b005b610229610a7a565b6040516102369190611bdf565b60405180910390f35b610247610a87565b005b610263600480360381019061025e9190611acd565b610a9b565b005b61026d610e53565b60405161027a9190611bfa565b60405180910390f35b61029d60048036038101906102989190611acd565b610e7c565b005b6102b960048036038101906102b49190611b53565b611161565b005b6102c361154a565b6040516102d09190611bdf565b60405180910390f35b6102f360048036038101906102ee9190611b53565b611550565b604051610301929190611c15565b60405180910390f35b610324600480360381019061031f9190611a34565b6115ad565b005b610340600480360381019061033b9190611c6a565b611630565b005b61034a611861565b6040516103579190611cf6565b60405180910390f35b610368611887565b600460008273ffffffffffffffffffffffffffffffffffffffff1673ffffffffffffffffffffffffffffffffffffffff16815260200190815260200160002060009054906101000a900460ff16156103f5576040517f08c379a00000000000000000000000000000000000000000000000000000000081526004016103ec90611d94565b60405180910390fd5b600260405180604001604052808373ffffffffffffffffffffffffffffffffffffffff168152602001600015158152509080600181540180825580915050600190039060005260206000200160009091909190915060008201518160000160006101000a81548173ffffffffffffffffffffffffffffffffffffffff021916908373ffffffffffffffffffffffffffffffffffffffff16021790555060208201518160000160146101000a81548160ff02191690831515021790555050506001600460008373ffffffffffffffffffffffffffffffffffffffff1673ffffffffffffffffffffffffffffffffffffffff16815260200190815260200160002060006101000a81548160ff021916908315150217905550600160028054905061051d9190611de3565b600360008373ffffffffffffffffffffffffffffffffffffffff1673ffffffffffffffffffffffffffffffffffffffff168152602001908152602001600020819055506001600560008282546105739190611e17565b925050819055507f0bfb62b1fbb00013554ed3ff21ca179a519aee08ccf015aed3482362436b6b35816040516105a99190611bfa565b60405180910390a150565b60096020528060005260406000206000915054906101000a900460ff1681565b600073ffffffffffffffffffffffffffffffffffffffff166007600860006105fa611905565b73ffffffffffffffffffffffffffffffffffffffff1673ffffffffffffffffffffffffffffffffffffffff168152602001908152602001600020548154811061064657610645611e4b565b5b906000526020600020906002020160010160009054906101000a900473ffffffffffffffffffffffffffffffffffffffff1673ffffffffffffffffffffffffffffffffffffffff16036106ce576040517f08c379a00000000000000000000000000000000000000000000000000000000081526004016106c590611eec565b60405180910390fd5b600015156007600860006106e0611905565b73ffffffffffffffffffffffffffffffffffffffff1673ffffffffffffffffffffffffffffffffffffffff168152602001908152602001600020548154811061072c5761072b611e4b565b5b906000526020600020906002020160010160149054906101000a900460ff1615151461078d576040517f08c379a000000000000000000000000000000000000000000000000000000000815260040161078490611f7e565b60405180910390fd5b600160076008600061079d611905565b73ffffffffffffffffffffffffffffffffffffffff1673ffffffffffffffffffffffffffffffffffffffff16815260200190815260200160002054815481106107e9576107e8611e4b565b5b906000526020600020906002020160010160146101000a81548160ff02191690831515021790555060006009600061081f611905565b73ffffffffffffffffffffffffffffffffffffffff1673ffffffffffffffffffffffffffffffffffffffff16815260200190815260200160002060006101000a81548160ff021916908315150217905550565b60046020528060005260406000206000915054906101000a900460ff1681565b600660205281600052604060002081815481106108ae57600080fd5b9060005260206000209060030201600091509150508060000154908060010154908060020160009054906101000a900460ff16905083565b600781815481106108f657600080fd5b90600052602060002090600202016000915090508060000154908060010160009054906101000a900473ffffffffffffffffffffffffffffffffffffffff16908060010160149054906101000a900460ff16905083565b610955611887565b6000600460008373ffffffffffffffffffffffffffffffffffffffff1673ffffffffffffffffffffffffffffffffffffffff16815260200190815260200160002060006101000a81548160ff0219169083151502179055506001600560008282546109c09190611de3565b9250508190555060016002600360008473ffffffffffffffffffffffffffffffffffffffff1673ffffffffffffffffffffffffffffffffffffffff1681526020019081526020016000205481548110610a1c57610a1b611e4b565b5b9060005260206000200160000160146101000a81548160ff0219169083151502179055507f1b0b878d06167e60e076b932df41de2b519d804c80445961e705ffbc98091f8781604051610a6f9190611bfa565b60405180910390a150565b6000600780549050905090565b610a8f611887565b610a99600061190d565b565b6001151560046000610aab611905565b73ffffffffffffffffffffffffffffffffffffffff1673ffffffffffffffffffffffffffffffffffffffff16815260200190815260200160002060009054906101000a900460ff16151514610b35576040517f08c379a0000000000000000000000000000000000000000000000000000000008152600401610b2c90612010565b60405180910390fd5b600a60008373ffffffffffffffffffffffffffffffffffffffff1673ffffffffffffffffffffffffffffffffffffffff16815260200190815260200160002060008281526020019081526020016000206000610b8f611905565b73ffffffffffffffffffffffffffffffffffffffff1673ffffffffffffffffffffffffffffffffffffffff16815260200190815260200160002060009054906101000a900460ff1615610c17576040517f08c379a0000000000000000000000000000000000000000000000000000000008152600401610c0e906120a2565b60405180910390fd5b6000600660008473ffffffffffffffffffffffffffffffffffffffff1673ffffffffffffffffffffffffffffffffffffffff1681526020019081526020016000208281548110610c6a57610c69611e4b565b5b90600052602060002090600302016000015411610cbc576040517f08c379a0000000000000000000000000000000000000000000000000000000008152600401610cb390612134565b60405180910390fd5b6001600660008473ffffffffffffffffffffffffffffffffffffffff1673ffffffffffffffffffffffffffffffffffffffff1681526020019081526020016000208281548110610d0f57610d0e611e4b565b5b90600052602060002090600302016001016000828254610d2f9190611e17565b925050819055506001600a60008473ffffffffffffffffffffffffffffffffffffffff1673ffffffffffffffffffffffffffffffffffffffff16815260200190815260200160002060008381526020019081526020016000206000610d92611905565b73ffffffffffffffffffffffffffffffffffffffff1673ffffffffffffffffffffffffffffffffffffffff16815260200190815260200160002060006101000a81548160ff0219169083151502179055508173ffffffffffffffffffffffffffffffffffffffff16610e02611905565b73ffffffffffffffffffffffffffffffffffffffff167f57bb83c14f9d3f349bd0d5d662e957c987a4854456300b818e76c7978ea2e5b883604051610e479190611bdf565b60405180910390a35050565b60008060009054906101000a900473ffffffffffffffffffffffffffffffffffffffff16905090565b6001151560046000610e8c611905565b73ffffffffffffffffffffffffffffffffffffffff1673ffffffffffffffffffffffffffffffffffffffff16815260200190815260200160002060009054906101000a900460ff16151514610f16576040517f08c379a0000000000000000000000000000000000000000000000000000000008152600401610f0d90612010565b60405180910390fd5b600073ffffffffffffffffffffffffffffffffffffffff166007600860008573ffffffffffffffffffffffffffffffffffffffff1673ffffffffffffffffffffffffffffffffffffffff1681526020019081526020016000205481548110610f8157610f80611e4b565b5b906000526020600020906002020160010160009054906101000a900473ffffffffffffffffffffffffffffffffffffffff1673ffffffffffffffffffffffffffffffffffffffff1603611009576040517f08c379a000000000000000000000000000000000000000000000000000000000815260040161100090611eec565b60405180910390fd5b6000811161104c576040517f08c379a0000000000000000000000000000000000000000000000000000000008152600401611043906121c6565b60405180910390fd5b6000604051806060016040528083815260200160008152602001600015158152509050600660008473ffffffffffffffffffffffffffffffffffffffff1673ffffffffffffffffffffffffffffffffffffffff168152602001908152602001600020819080600181540180825580915050600190039060005260206000209060030201600090919091909150600082015181600001556020820151816001015560408201518160020160006101000a81548160ff02191690831515021790555050508273ffffffffffffffffffffffffffffffffffffffff167fcbf2f8dcc2e57120df4e64e31e8bcb10fffef66c2a8f7e39ceb4061bb72c3885836040516111549190611bdf565b60405180910390a2505050565b6001151560096000611171611905565b73ffffffffffffffffffffffffffffffffffffffff1673ffffffffffffffffffffffffffffffffffffffff16815260200190815260200160002060009054906101000a900460ff161515146111fb576040517f08c379a00000000000000000000000000000000000000000000000000000000081526004016111f290612258565b60405180910390fd5b60055460026006600061120c611905565b73ffffffffffffffffffffffffffffffffffffffff1673ffffffffffffffffffffffffffffffffffffffff168152602001908152602001600020838154811061125857611257611e4b565b5b9060005260206000209060030201600101546112749190612278565b116112b4576040517f08c379a00000000000000000000000000000000000000000000000000000000081526004016112ab9061232c565b60405180910390fd5b600660006112c0611905565b73ffffffffffffffffffffffffffffffffffffffff1673ffffffffffffffffffffffffffffffffffffffff168152602001908152602001600020818154811061130c5761130b611e4b565b5b906000526020600020906003020160020160009054906101000a900460ff161561136b576040517f08c379a000000000000000000000000000000000000000000000000000000000815260040161136290612398565b60405180910390fd5b600060066000611379611905565b73ffffffffffffffffffffffffffffffffffffffff1673ffffffffffffffffffffffffffffffffffffffff16815260200190815260200160002082815481106113c5576113c4611e4b565b5b9060005260206000209060030201600001549050600160009054906101000a900473ffffffffffffffffffffffffffffffffffffffff1673ffffffffffffffffffffffffffffffffffffffff166340c10f1961141f611905565b836040518363ffffffff1660e01b815260040161143d9291906123b8565b600060405180830381600087803b15801561145757600080fd5b505af115801561146b573d6000803e3d6000fd5b5050505060016006600061147d611905565b73ffffffffffffffffffffffffffffffffffffffff1673ffffffffffffffffffffffffffffffffffffffff16815260200190815260200160002083815481106114c9576114c8611e4b565b5b906000526020600020906003020160020160006101000a81548160ff0219169083151502179055506114f9611905565b73ffffffffffffffffffffffffffffffffffffffff167fcea3075acde4774a33609cbbcdc18b7f2e492e6c21502369ccb7d7dbac607c348260405161153e9190611bdf565b60405180910390a25050565b60055481565b6002818154811061156057600080fd5b906000526020600020016000915090508060000160009054906101000a900473ffffffffffffffffffffffffffffffffffffffff16908060000160149054906101000a900460ff16905082565b6115b5611887565b600073ffffffffffffffffffffffffffffffffffffffff168173ffffffffffffffffffffffffffffffffffffffff1603611624576040517f08c379a000000000000000000000000000000000000000000000000000000000815260040161161b90612453565b60405180910390fd5b61162d8161190d565b50565b6009600061163c611905565b73ffffffffffffffffffffffffffffffffffffffff1673ffffffffffffffffffffffffffffffffffffffff16815260200190815260200160002060009054906101000a900460ff16156116c4576040517f08c379a00000000000000000000000000000000000000000000000000000000081526004016116bb906124e5565b60405180910390fd5b600060405180606001604052808381526020016116df611905565b73ffffffffffffffffffffffffffffffffffffffff16815260200160001515815250905060078190806001815401808255809150506001900390600052602060002090600202016000909190919091506000820151816000015560208201518160010160006101000a81548173ffffffffffffffffffffffffffffffffffffffff021916908373ffffffffffffffffffffffffffffffffffffffff16021790555060408201518160010160146101000a81548160ff021916908315150217905550505060016007805490506117b49190611de3565b600860006117c0611905565b73ffffffffffffffffffffffffffffffffffffffff1673ffffffffffffffffffffffffffffffffffffffff1681526020019081526020016000208190555060016009600061180c611905565b73ffffffffffffffffffffffffffffffffffffffff1673ffffffffffffffffffffffffffffffffffffffff16815260200190815260200160002060006101000a81548160ff0219169083151502179055505050565b600160009054906101000a900473ffffffffffffffffffffffffffffffffffffffff1681565b61188f611905565b73ffffffffffffffffffffffffffffffffffffffff166118ad610e53565b73ffffffffffffffffffffffffffffffffffffffff1614611903576040517f08c379a00000000000000000000000000000000000000000000000000000000081526004016118fa90612551565b60405180910390fd5b565b600033905090565b60008060009054906101000a900473ffffffffffffffffffffffffffffffffffffffff169050816000806101000a81548173ffffffffffffffffffffffffffffffffffffffff021916908373ffffffffffffffffffffffffffffffffffffffff1602179055508173ffffffffffffffffffffffffffffffffffffffff168173ffffffffffffffffffffffffffffffffffffffff167f8be0079c531659141344cd1fd0a4f28419497f9722a3daafe3b4186f6b6457e060405160405180910390a35050565b600080fd5b600073ffffffffffffffffffffffffffffffffffffffff82169050919050565b6000611a01826119d6565b9050919050565b611a11816119f6565b8114611a1c57600080fd5b50565b600081359050611a2e81611a08565b92915050565b600060208284031215611a4a57611a496119d1565b5b6000611a5884828501611a1f565b91505092915050565b60008115159050919050565b611a7681611a61565b82525050565b6000602082019050611a916000830184611a6d565b92915050565b6000819050919050565b611aaa81611a97565b8114611ab557600080fd5b50565b600081359050611ac781611aa1565b92915050565b60008060408385031215611ae457611ae36119d1565b5b6000611af285828601611a1f565b9250506020611b0385828601611ab8565b9150509250929050565b611b1681611a97565b82525050565b6000606082019050611b316000830186611b0d565b611b3e6020830185611b0d565b611b4b6040830184611a6d565b949350505050565b600060208284031215611b6957611b686119d1565b5b6000611b7784828501611ab8565b91505092915050565b6000819050919050565b611b9381611b80565b82525050565b611ba2816119f6565b82525050565b6000606082019050611bbd6000830186611b8a565b611bca6020830185611b99565b611bd76040830184611a6d565b949350505050565b6000602082019050611bf46000830184611b0d565b92915050565b6000602082019050611c0f6000830184611b99565b92915050565b6000604082019050611c2a6000830185611b99565b611c376020830184611a6d565b9392505050565b611c4781611b80565b8114611c5257600080fd5b50565b600081359050611c6481611c3e565b92915050565b600060208284031215611c8057611c7f6119d1565b5b6000611c8e84828501611c55565b91505092915050565b6000819050919050565b6000611cbc611cb7611cb2846119d6565b611c97565b6119d6565b9050919050565b6000611cce82611ca1565b9050919050565b6000611ce082611cc3565b9050919050565b611cf081611cd5565b82525050565b6000602082019050611d0b6000830184611ce7565b92915050565b600082825260208201905092915050565b7f436861696e446f6e6f724875623a20496e737469747574696f6e20616c72656160008201527f6479207265676973746572656400000000000000000000000000000000000000602082015250565b6000611d7e602d83611d11565b9150611d8982611d22565b604082019050919050565b60006020820190508181036000830152611dad81611d71565b9050919050565b7f4e487b7100000000000000000000000000000000000000000000000000000000600052601160045260246000fd5b6000611dee82611a97565b9150611df983611a97565b9250828203905081811115611e1157611e10611db4565b5b92915050565b6000611e2282611a97565b9150611e2d83611a97565b9250828201905080821115611e4557611e44611db4565b5b92915050565b7f4e487b7100000000000000000000000000000000000000000000000000000000600052603260045260246000fd5b7f436861696e446f6e6f724875623a20446f6e6f72206e6f74207265676973746560008201527f7265640000000000000000000000000000000000000000000000000000000000602082015250565b6000611ed6602383611d11565b9150611ee182611e7a565b604082019050919050565b60006020820190508181036000830152611f0581611ec9565b9050919050565b7f436861696e446f6e6f724875623a20446f6e6f7220616c72656164792064656c60008201527f6574656400000000000000000000000000000000000000000000000000000000602082015250565b6000611f68602483611d11565b9150611f7382611f0c565b604082019050919050565b60006020820190508181036000830152611f9781611f5b565b9050919050565b7f436861696e446f6e6f724875623a2053656e646572206973206e6f742061206d60008201527f65646963616c20696e737469747574696f6e0000000000000000000000000000602082015250565b6000611ffa603283611d11565b915061200582611f9e565b604082019050919050565b6000602082019050818103600083015261202981611fed565b9050919050565b7f436861696e446f6e6f724875623a20496e737469747574696f6e20686173206160008201527f6c726561647920617070726f766564207468697320646f6e6174696f6e000000602082015250565b600061208c603d83611d11565b915061209782612030565b604082019050919050565b600060208201905081810360008301526120bb8161207f565b9050919050565b7f436861696e446f6e6f724875623a20446f6e6174696f6e20646f6573206e6f7460008201527f2065786973740000000000000000000000000000000000000000000000000000602082015250565b600061211e602683611d11565b9150612129826120c2565b604082019050919050565b6000602082019050818103600083015261214d81612111565b9050919050565b7f436861696e446f6e6f724875623a20416d6f756e74206d75737420626520677260008201527f6561746572207468616e20300000000000000000000000000000000000000000602082015250565b60006121b0602c83611d11565b91506121bb82612154565b604082019050919050565b600060208201905081810360008301526121df816121a3565b9050919050565b7f436861696e446f6e6f724875623a2053656e646572206973206e6f742061206460008201527f6f6e6f7200000000000000000000000000000000000000000000000000000000602082015250565b6000612242602483611d11565b915061224d826121e6565b604082019050919050565b6000602082019050818103600083015261227181612235565b9050919050565b600061228382611a97565b915061228e83611a97565b925082820261229c81611a97565b915082820484148315176122b3576122b2611db4565b5b5092915050565b7f436861696e446f6e6f724875623a204e6f7420656e6f75676820617070726f7660008201527f616c730000000000000000000000000000000000000000000000000000000000602082015250565b6000612316602383611d11565b9150612321826122ba565b604082019050919050565b6000602082019050818103600083015261234581612309565b9050919050565b7f436861696e446f6e6f724875623a20416c726561647920636c61696d65640000600082015250565b6000612382601e83611d11565b915061238d8261234c565b602082019050919050565b600060208201905081810360008301526123b181612375565b9050919050565b60006040820190506123cd6000830185611b99565b6123da6020830184611b0d565b9392505050565b7f4f776e61626c653a206e6577206f776e657220697320746865207a65726f206160008201527f6464726573730000000000000000000000000000000000000000000000000000602082015250565b600061243d602683611d11565b9150612448826123e1565b604082019050919050565b6000602082019050818103600083015261246c81612430565b9050919050565b7f436861696e446f6e6f724875623a20446f6e6f7220616c72656164792072656760008201527f6973746572656400000000000000000000000000000000000000000000000000602082015250565b60006124cf602783611d11565b91506124da82612473565b604082019050919050565b600060208201905081810360008301526124fe816124c2565b9050919050565b7f4f776e61626c653a2063616c6c6572206973206e6f7420746865206f776e6572600082015250565b600061253b602083611d11565b915061254682612505565b602082019050919050565b6000602082019050818103600083015261256a8161252e565b905091905056fea26469706673582212204ab6d56f05f786ae7af909d02e5e42b8bd48b7874138d418e0a79842fdf3173964736f6c63430008130033",
  "linkReferences": {},
  "deployedLinkReferences": {}
}