{
  "_format": "hh-sol-artifact-1",
  "contractName": "ChainDonorMarketplace",
  "sourceName": "contracts/ChainDonorMarketplace.sol",
  "abi": [
    {
      "inputs": [
        {
          "internalType": "address",
          "name": "_tokenAddress",
          "type": "address"
        }
      ],
      "stateMutability": "nonpayable",
      "type": "constructor"
    },
    {
      "anonymous": false,
      "inputs": [
        {
          "indexed": true,
          "internalType": "address",
          "name": "charity",
          "type": "address"
        }
      ],
      "name": "CharityAdded",
      "type": "event"
    },
    {
      "anonymous": false,
      "inputs": [
        {
          "indexed": true,
          "internalType": "address",
          "name": "charity",
          "type": "address"
        }
      ],
      "name": "CharityRemoved",
      "type": "event"
    },
    {
      "anonymous": false,
      "inputs": [
        {
          "indexed": true,
          "internalType": "string",
          "name": "name",
          "type": "string"
        },
        {
          "indexed": true,
          "internalType": "uint256",
          "name": "cost",
          "type": "uint256"
        },
        {
          "indexed": true,
          "internalType": "address",
          "name": "charity",
          "type": "address"
        }
      ],
      "name": "ItemAdded",
      "type": "event"
    },
    {
      "anonymous": false,
      "inputs": [
        {
          "indexed": true,
          "internalType": "address",
          "name": "donor",
          "type": "address"
        },
        {
          "indexed": true,
          "internalType": "uint256",
          "name": "itemId",
          "type": "uint256"
        }
      ],
      "name": "ItemPurchased",
      "type": "event"
    },
    {
      "anonymous": false,
      "inputs": [
        {
          "indexed": true,
          "internalType": "address",
          "name": "previousOwner",
          "type": "address"
        },
        {
          "indexed": true,
          "internalType": "address",
          "name": "newOwner",
          "type": "address"
        }
      ],
      "name": "OwnershipTransferred",
      "type": "event"
    },
    {
      "inputs": [
        {
          "internalType": "address",
          "name": "_charity",
          "type": "address"
        }
      ],
      "name": "addCharity",
      "outputs": [],
      "stateMutability": "nonpayable",
      "type": "function"
    },
    {
      "inputs": [
        {
          "internalType": "address",
          "name": "",
          "type": "address"
        },
        {
          "internalType": "address",
          "name": "",
          "type": "address"
        }
      ],
      "name": "addCharityVotes",
      "outputs": [
        {
          "internalType": "bool",
          "name": "",
          "type": "bool"
        }
      ],
      "stateMutability": "view",
      "type": "function"
    },
    {
      "inputs": [
        {
          "internalType": "string",
          "name": "_name",
          "type": "string"
        },
        {
          "internalType": "uint256",
          "name": "_cost",
          "type": "uint256"
        }
      ],
      "name": "addItem",
      "outputs": [],
      "stateMutability": "nonpayable",
      "type": "function"
    },
    {
      "inputs": [
        {
          "internalType": "address",
          "name": "_charity",
          "type": "address"
        }
      ],
      "name": "approveAddCharity",
      "outputs": [],
      "stateMutability": "nonpayable",
      "type": "function"
    },
    {
      "inputs": [
        {
          "internalType": "address",
          "name": "_charity",
          "type": "address"
        }
      ],
      "name": "approveRemoveCharity",
      "outputs": [],
      "stateMutability": "nonpayable",
      "type": "function"
    },
    {
      "inputs": [
        {
          "internalType": "uint256",
          "name": "",
          "type": "uint256"
        }
      ],
      "name": "charities",
      "outputs": [
        {
          "internalType": "address",
          "name": "wallet",
          "type": "address"
        },
        {
          "internalType": "bool",
          "name": "isDeleted",
          "type": "bool"
        },
        {
          "internalType": "bool",
          "name": "isApproved",
          "type": "bool"
        },
        {
          "internalType": "uint256",
          "name": "totalAddVotes",
          "type": "uint256"
        },
        {
          "internalType": "uint256",
          "name": "totalRemoveVotes",
          "type": "uint256"
        }
      ],
      "stateMutability": "view",
      "type": "function"
    },
    {
      "inputs": [
        {
          "internalType": "address",
          "name": "",
          "type": "address"
        }
      ],
      "name": "isApprovedCharity",
      "outputs": [
        {
          "internalType": "bool",
          "name": "",
          "type": "bool"
        }
      ],
      "stateMutability": "view",
      "type": "function"
    },
    {
      "inputs": [
        {
          "internalType": "address",
          "name": "",
          "type": "address"
        }
      ],
      "name": "isCharity",
      "outputs": [
        {
          "internalType": "bool",
          "name": "",
          "type": "bool"
        }
      ],
      "stateMutability": "view",
      "type": "function"
    },
    {
      "inputs": [
        {
          "internalType": "uint256",
          "name": "",
          "type": "uint256"
        }
      ],
      "name": "items",
      "outputs": [
        {
          "internalType": "string",
          "name": "name",
          "type": "string"
        },
        {
          "internalType": "uint256",
          "name": "cost",
          "type": "uint256"
        },
        {
          "internalType": "address",
          "name": "charity",
          "type": "address"
        },
        {
          "internalType": "bool",
          "name": "purchased",
          "type": "bool"
        },
        {
          "internalType": "address",
          "name": "purchasedBy",
          "type": "address"
        }
      ],
      "stateMutability": "view",
      "type": "function"
    },
    {
      "inputs": [],
      "name": "owner",
      "outputs": [
        {
          "internalType": "address",
          "name": "",
          "type": "address"
        }
      ],
      "stateMutability": "view",
      "type": "function"
    },
    {
      "inputs": [
        {
          "internalType": "uint256",
          "name": "_itemId",
          "type": "uint256"
        }
      ],
      "name": "purchaseItem",
      "outputs": [],
      "stateMutability": "nonpayable",
      "type": "function"
    },
    {
      "inputs": [
        {
          "internalType": "address",
          "name": "",
          "type": "address"
        },
        {
          "internalType": "address",
          "name": "",
          "type": "address"
        }
      ],
      "name": "removeCharityVotes",
      "outputs": [
        {
          "internalType": "bool",
          "name": "",
          "type": "bool"
        }
      ],
      "stateMutability": "view",
      "type": "function"
    },
    {
      "inputs": [],
      "name": "renounceOwnership",
      "outputs": [],
      "stateMutability": "nonpayable",
      "type": "function"
    },
    {
      "inputs": [],
      "name": "token",
      "outputs": [
        {
          "internalType": "contract BloodToken",
          "name": "",
          "type": "address"
        }
      ],
      "stateMutability": "view",
      "type": "function"
    },
    {
      "inputs": [],
      "name": "totalApprovedCharities",
      "outputs": [
        {
          "internalType": "uint256",
          "name": "",
          "type": "uint256"
        }
      ],
      "stateMutability": "view",
      "type": "function"
    },
    {
      "inputs": [],
      "name": "totalCharities",
      "outputs": [
        {
          "internalType": "uint256",
          "name": "",
          "type": "uint256"
        }
      ],
      "stateMutability": "view",
      "type": "function"
    },
    {
      "inputs": [],
      "name": "totalItems",
      "outputs": [
        {
          "internalType": "uint256",
          "name": "",
          "type": "uint256"
        }
      ],
      "stateMutability": "view",
      "type": "function"
    },
    {
      "inputs": [
        {
          "internalType": "address",
          "name": "newOwner",
          "type": "address"
        }
      ],
      "name": "transferOwnership",
      "outputs": [],
      "stateMutability": "nonpayable",
      "type": "function"
    }
  ],
  "bytecode": "0x60806040523480156200001157600080fd5b50604051620029d0380380620029d08339818101604052810190620000379190620001d5565b620000576200004b6200009f60201b60201c565b620000a760201b60201c565b80600160006101000a81548173ffffffffffffffffffffffffffffffffffffffff021916908373ffffffffffffffffffffffffffffffffffffffff1602179055505062000207565b600033905090565b60008060009054906101000a900473ffffffffffffffffffffffffffffffffffffffff169050816000806101000a81548173ffffffffffffffffffffffffffffffffffffffff021916908373ffffffffffffffffffffffffffffffffffffffff1602179055508173ffffffffffffffffffffffffffffffffffffffff168173ffffffffffffffffffffffffffffffffffffffff167f8be0079c531659141344cd1fd0a4f28419497f9722a3daafe3b4186f6b6457e060405160405180910390a35050565b600080fd5b600073ffffffffffffffffffffffffffffffffffffffff82169050919050565b60006200019d8262000170565b9050919050565b620001af8162000190565b8114620001bb57600080fd5b50565b600081519050620001cf81620001a4565b92915050565b600060208284031215620001ee57620001ed6200016b565b5b6000620001fe84828501620001be565b91505092915050565b6127b980620002176000396000f3fe608060405234801561001057600080fd5b50600436106101165760003560e01c80638da5cb5b116100a2578063e81ffbef11610071578063e81ffbef146102cf578063f2fde38b146102ff578063f4fbace81461031b578063fb709d2e14610339578063fc0c546a1461036d57610116565b80638da5cb5b14610231578063b857ebbc1461024f578063bfb231d21461027f578063d38ea5bf146102b357610116565b806362d6bbdf116100e957806362d6bbdf146101a3578063715018a6146101bf57806378b14f0a146101c957806383999b67146101e5578063870eda291461021557610116565b8063149282121461011b5780632799276d1461014b5780633885add51461016957806357221fd014610187575b600080fd5b6101356004803603810190610130919061194b565b61038b565b6040516101429190611993565b60405180910390f35b6101536103ab565b60405161016091906119c7565b60405180910390f35b6101716103b1565b60405161017e91906119c7565b60405180910390f35b6101a1600480360381019061019c919061194b565b6103b7565b005b6101bd60048036038101906101b89190611b54565b610756565b005b6101c76109d2565b005b6101e360048036038101906101de919061194b565b6109e6565b005b6101ff60048036038101906101fa9190611bb0565b610c90565b60405161020c9190611993565b60405180910390f35b61022f600480360381019061022a919061194b565b610cbf565b005b6102396110eb565b6040516102469190611bff565b60405180910390f35b61026960048036038101906102649190611bb0565b611114565b6040516102769190611993565b60405180910390f35b61029960048036038101906102949190611c1a565b611143565b6040516102aa959493929190611cc6565b60405180910390f35b6102cd60048036038101906102c89190611c1a565b61125e565b005b6102e960048036038101906102e4919061194b565b611504565b6040516102f69190611993565b60405180910390f35b6103196004803603810190610314919061194b565b611524565b005b6103236115a7565b60405161033091906119c7565b60405180910390f35b610353600480360381019061034e9190611c1a565b6115b4565b604051610364959493929190611d20565b60405180910390f35b610375611634565b6040516103829190611dd2565b60405180910390f35b60046020528060005260406000206000915054906101000a900460ff1681565b600a5481565b60055481565b600160028054905011158061041c5750600460006103d361165a565b73ffffffffffffffffffffffffffffffffffffffff1673ffffffffffffffffffffffffffffffffffffffff16815260200190815260200160002060009054906101000a900460ff165b61045b576040517f08c379a000000000000000000000000000000000000000000000000000000000815260040161045290611e5f565b60405180910390fd5b600460008273ffffffffffffffffffffffffffffffffffffffff1673ffffffffffffffffffffffffffffffffffffffff16815260200190815260200160002060009054906101000a900460ff166104e7576040517f08c379a00000000000000000000000000000000000000000000000000000000081526004016104de90611ef1565b60405180910390fd5b600860008273ffffffffffffffffffffffffffffffffffffffff1673ffffffffffffffffffffffffffffffffffffffff168152602001908152602001600020600061053061165a565b73ffffffffffffffffffffffffffffffffffffffff1673ffffffffffffffffffffffffffffffffffffffff16815260200190815260200160002060009054906101000a900460ff16156105b8576040517f08c379a00000000000000000000000000000000000000000000000000000000081526004016105af90611f83565b60405180910390fd5b6001600860008373ffffffffffffffffffffffffffffffffffffffff1673ffffffffffffffffffffffffffffffffffffffff168152602001908152602001600020600061060361165a565b73ffffffffffffffffffffffffffffffffffffffff1673ffffffffffffffffffffffffffffffffffffffff16815260200190815260200160002060006101000a81548160ff02191690831515021790555060016002600660008473ffffffffffffffffffffffffffffffffffffffff1673ffffffffffffffffffffffffffffffffffffffff16815260200190815260200160002054815481106106a9576106a8611fa3565b5b906000526020600020906003020160020160008282546106c99190612001565b92505081905550600554600280600660008573ffffffffffffffffffffffffffffffffffffffff1673ffffffffffffffffffffffffffffffffffffffff168152602001908152602001600020548154811061072757610726611fa3565b5b9060005260206000209060030201600201546107439190612035565b11156107535761075281611662565b5b50565b60016002805490501115806107bb57506004600061077261165a565b73ffffffffffffffffffffffffffffffffffffffff1673ffffffffffffffffffffffffffffffffffffffff16815260200190815260200160002060009054906101000a900460ff165b6107fa576040517f08c379a00000000000000000000000000000000000000000000000000000000081526004016107f190611e5f565b60405180910390fd5b60096040518060a0016040528084815260200183815260200161081b61165a565b73ffffffffffffffffffffffffffffffffffffffff168152602001600015158152602001600073ffffffffffffffffffffffffffffffffffffffff16815250908060018154018082558091505060019003906000526020600020906004020160009091909190915060008201518160000190816108989190612279565b506020820151816001015560408201518160020160006101000a81548173ffffffffffffffffffffffffffffffffffffffff021916908373ffffffffffffffffffffffffffffffffffffffff16021790555060608201518160020160146101000a81548160ff02191690831515021790555060808201518160030160006101000a81548173ffffffffffffffffffffffffffffffffffffffff021916908373ffffffffffffffffffffffffffffffffffffffff16021790555050506001600a60008282546109669190612001565b9250508190555061097561165a565b73ffffffffffffffffffffffffffffffffffffffff16818360405161099a9190612387565b60405180910390207f86c54adc47ec3a71c36e96780c5a75a8c40d00b98b1e4c84e4831d72ca4969fe60405160405180910390a45050565b6109da611797565b6109e46000611815565b565b6109ee611797565b600360008273ffffffffffffffffffffffffffffffffffffffff1673ffffffffffffffffffffffffffffffffffffffff16815260200190815260200160002060009054906101000a900460ff1615610a7b576040517f08c379a0000000000000000000000000000000000000000000000000000000008152600401610a7290612410565b60405180910390fd5b6001600360008373ffffffffffffffffffffffffffffffffffffffff1673ffffffffffffffffffffffffffffffffffffffff16815260200190815260200160002060006101000a81548160ff0219169083151502179055506000600460008373ffffffffffffffffffffffffffffffffffffffff1673ffffffffffffffffffffffffffffffffffffffff16815260200190815260200160002060006101000a81548160ff02191690831515021790555060026040518060a001604052808373ffffffffffffffffffffffffffffffffffffffff168152602001600015158152602001600015158152602001600081526020016000815250908060018154018082558091505060019003906000526020600020906003020160009091909190915060008201518160000160006101000a81548173ffffffffffffffffffffffffffffffffffffffff021916908373ffffffffffffffffffffffffffffffffffffffff16021790555060208201518160000160146101000a81548160ff02191690831515021790555060408201518160000160156101000a81548160ff021916908315150217905550606082015181600101556080820151816002015550506001600280549050610c4a9190612430565b600660008373ffffffffffffffffffffffffffffffffffffffff1673ffffffffffffffffffffffffffffffffffffffff1681526020019081526020016000208190555050565b60086020528160005260406000206020528060005260406000206000915091509054906101000a900460ff1681565b6001600280549050111580610d24575060046000610cdb61165a565b73ffffffffffffffffffffffffffffffffffffffff1673ffffffffffffffffffffffffffffffffffffffff16815260200190815260200160002060009054906101000a900460ff165b610d63576040517f08c379a0000000000000000000000000000000000000000000000000000000008152600401610d5a90611e5f565b60405180910390fd5b600360008273ffffffffffffffffffffffffffffffffffffffff1673ffffffffffffffffffffffffffffffffffffffff16815260200190815260200160002060009054906101000a900460ff16610def576040517f08c379a0000000000000000000000000000000000000000000000000000000008152600401610de690611ef1565b60405180910390fd5b600460008273ffffffffffffffffffffffffffffffffffffffff1673ffffffffffffffffffffffffffffffffffffffff16815260200190815260200160002060009054906101000a900460ff1615610e7c576040517f08c379a0000000000000000000000000000000000000000000000000000000008152600401610e73906124d6565b60405180910390fd5b600760008273ffffffffffffffffffffffffffffffffffffffff1673ffffffffffffffffffffffffffffffffffffffff1681526020019081526020016000206000610ec561165a565b73ffffffffffffffffffffffffffffffffffffffff1673ffffffffffffffffffffffffffffffffffffffff16815260200190815260200160002060009054906101000a900460ff1615610f4d576040517f08c379a0000000000000000000000000000000000000000000000000000000008152600401610f4490611f83565b60405180910390fd5b6001600760008373ffffffffffffffffffffffffffffffffffffffff1673ffffffffffffffffffffffffffffffffffffffff1681526020019081526020016000206000610f9861165a565b73ffffffffffffffffffffffffffffffffffffffff1673ffffffffffffffffffffffffffffffffffffffff16815260200190815260200160002060006101000a81548160ff02191690831515021790555060016002600660008473ffffffffffffffffffffffffffffffffffffffff1673ffffffffffffffffffffffffffffffffffffffff168152602001908152602001600020548154811061103e5761103d611fa3565b5b9060005260206000209060030201600101600082825461105e9190612001565b92505081905550600554600280600660008573ffffffffffffffffffffffffffffffffffffffff1673ffffffffffffffffffffffffffffffffffffffff16815260200190815260200160002054815481106110bc576110bb611fa3565b5b9060005260206000209060030201600101546110d89190612035565b11156110e8576110e781611662565b5b50565b60008060009054906101000a900473ffffffffffffffffffffffffffffffffffffffff16905090565b60076020528160005260406000206020528060005260406000206000915091509054906101000a900460ff1681565b6009818154811061115357600080fd5b9060005260206000209060040201600091509050806000018054611176906120a6565b80601f01602080910402602001604051908101604052809291908181526020018280546111a2906120a6565b80156111ef5780601f106111c4576101008083540402835291602001916111ef565b820191906000526020600020905b8154815290600101906020018083116111d257829003601f168201915b5050505050908060010154908060020160009054906101000a900473ffffffffffffffffffffffffffffffffffffffff16908060020160149054906101000a900460ff16908060030160009054906101000a900473ffffffffffffffffffffffffffffffffffffffff16905085565b60098054905081106112a5576040517f08c379a000000000000000000000000000000000000000000000000000000000815260040161129c90612568565b60405180910390fd5b6000600982815481106112bb576112ba611fa3565b5b906000526020600020906004020190508060010154600160009054906101000a900473ffffffffffffffffffffffffffffffffffffffff1673ffffffffffffffffffffffffffffffffffffffff166370a0823161131661165a565b6040518263ffffffff1660e01b81526004016113329190611bff565b602060405180830381865afa15801561134f573d6000803e3d6000fd5b505050506040513d601f19601f82011682018060405250810190611373919061259d565b10156113b4576040517f08c379a00000000000000000000000000000000000000000000000000000000081526004016113ab9061263c565b60405180910390fd5b600160009054906101000a900473ffffffffffffffffffffffffffffffffffffffff1673ffffffffffffffffffffffffffffffffffffffff166379cc67906113fa61165a565b83600101546040518363ffffffff1660e01b815260040161141c92919061265c565b600060405180830381600087803b15801561143657600080fd5b505af115801561144a573d6000803e3d6000fd5b5050505060018160020160146101000a81548160ff02191690831515021790555061147361165a565b8160030160006101000a81548173ffffffffffffffffffffffffffffffffffffffff021916908373ffffffffffffffffffffffffffffffffffffffff160217905550816114be61165a565b73ffffffffffffffffffffffffffffffffffffffff167f792fe07c0f3ce4ef42df79c4a2b07925168cddbaabf7a7ef1351f027a376031360405160405180910390a35050565b60036020528060005260406000206000915054906101000a900460ff1681565b61152c611797565b600073ffffffffffffffffffffffffffffffffffffffff168173ffffffffffffffffffffffffffffffffffffffff160361159b576040517f08c379a0000000000000000000000000000000000000000000000000000000008152600401611592906126f7565b60405180910390fd5b6115a481611815565b50565b6000600280549050905090565b600281815481106115c457600080fd5b90600052602060002090600302016000915090508060000160009054906101000a900473ffffffffffffffffffffffffffffffffffffffff16908060000160149054906101000a900460ff16908060000160159054906101000a900460ff16908060010154908060020154905085565b600160009054906101000a900473ffffffffffffffffffffffffffffffffffffffff1681565b600033905090565b6001600460008373ffffffffffffffffffffffffffffffffffffffff1673ffffffffffffffffffffffffffffffffffffffff16815260200190815260200160002060006101000a81548160ff02191690831515021790555060016002600660008473ffffffffffffffffffffffffffffffffffffffff1673ffffffffffffffffffffffffffffffffffffffff168152602001908152602001600020548154811061170f5761170e611fa3565b5b906000526020600020906003020160000160156101000a81548160ff02191690831515021790555060016005600082825461174a9190612001565b925050819055508073ffffffffffffffffffffffffffffffffffffffff167fc17dc19a503d796a336a016f10743118db2bdadb16ac4c19aff016075609863560405160405180910390a250565b61179f61165a565b73ffffffffffffffffffffffffffffffffffffffff166117bd6110eb565b73ffffffffffffffffffffffffffffffffffffffff1614611813576040517f08c379a000000000000000000000000000000000000000000000000000000000815260040161180a90612763565b60405180910390fd5b565b60008060009054906101000a900473ffffffffffffffffffffffffffffffffffffffff169050816000806101000a81548173ffffffffffffffffffffffffffffffffffffffff021916908373ffffffffffffffffffffffffffffffffffffffff1602179055508173ffffffffffffffffffffffffffffffffffffffff168173ffffffffffffffffffffffffffffffffffffffff167f8be0079c531659141344cd1fd0a4f28419497f9722a3daafe3b4186f6b6457e060405160405180910390a35050565b6000604051905090565b600080fd5b600080fd5b600073ffffffffffffffffffffffffffffffffffffffff82169050919050565b6000611918826118ed565b9050919050565b6119288161190d565b811461193357600080fd5b50565b6000813590506119458161191f565b92915050565b600060208284031215611961576119606118e3565b5b600061196f84828501611936565b91505092915050565b60008115159050919050565b61198d81611978565b82525050565b60006020820190506119a86000830184611984565b92915050565b6000819050919050565b6119c1816119ae565b82525050565b60006020820190506119dc60008301846119b8565b92915050565b600080fd5b600080fd5b6000601f19601f8301169050919050565b7f4e487b7100000000000000000000000000000000000000000000000000000000600052604160045260246000fd5b611a35826119ec565b810181811067ffffffffffffffff82111715611a5457611a536119fd565b5b80604052505050565b6000611a676118d9565b9050611a738282611a2c565b919050565b600067ffffffffffffffff821115611a9357611a926119fd565b5b611a9c826119ec565b9050602081019050919050565b82818337600083830152505050565b6000611acb611ac684611a78565b611a5d565b905082815260208101848484011115611ae757611ae66119e7565b5b611af2848285611aa9565b509392505050565b600082601f830112611b0f57611b0e6119e2565b5b8135611b1f848260208601611ab8565b91505092915050565b611b31816119ae565b8114611b3c57600080fd5b50565b600081359050611b4e81611b28565b92915050565b60008060408385031215611b6b57611b6a6118e3565b5b600083013567ffffffffffffffff811115611b8957611b886118e8565b5b611b9585828601611afa565b9250506020611ba685828601611b3f565b9150509250929050565b60008060408385031215611bc757611bc66118e3565b5b6000611bd585828601611936565b9250506020611be685828601611936565b9150509250929050565b611bf98161190d565b82525050565b6000602082019050611c146000830184611bf0565b92915050565b600060208284031215611c3057611c2f6118e3565b5b6000611c3e84828501611b3f565b91505092915050565b600081519050919050565b600082825260208201905092915050565b60005b83811015611c81578082015181840152602081019050611c66565b60008484015250505050565b6000611c9882611c47565b611ca28185611c52565b9350611cb2818560208601611c63565b611cbb816119ec565b840191505092915050565b600060a0820190508181036000830152611ce08188611c8d565b9050611cef60208301876119b8565b611cfc6040830186611bf0565b611d096060830185611984565b611d166080830184611bf0565b9695505050505050565b600060a082019050611d356000830188611bf0565b611d426020830187611984565b611d4f6040830186611984565b611d5c60608301856119b8565b611d6960808301846119b8565b9695505050505050565b6000819050919050565b6000611d98611d93611d8e846118ed565b611d73565b6118ed565b9050919050565b6000611daa82611d7d565b9050919050565b6000611dbc82611d9f565b9050919050565b611dcc81611db1565b82525050565b6000602082019050611de76000830184611dc3565b92915050565b7f436861696e446f6e6f724d61726b6574706c6163653a2053656e64657220697360008201527f206e6f7420612063686172697479000000000000000000000000000000000000602082015250565b6000611e49602e83611c52565b9150611e5482611ded565b604082019050919050565b60006020820190508181036000830152611e7881611e3c565b9050919050565b7f436861696e446f6e6f724d61726b6574706c6163653a2043686172697479206460008201527f6f6573206e6f7420657869737400000000000000000000000000000000000000602082015250565b6000611edb602d83611c52565b9150611ee682611e7f565b604082019050919050565b60006020820190508181036000830152611f0a81611ece565b9050919050565b7f436861696e446f6e6f724d61726b6574706c6163653a2043686172697479206160008201527f6c726561647920766f7465640000000000000000000000000000000000000000602082015250565b6000611f6d602c83611c52565b9150611f7882611f11565b604082019050919050565b60006020820190508181036000830152611f9c81611f60565b9050919050565b7f4e487b7100000000000000000000000000000000000000000000000000000000600052603260045260246000fd5b7f4e487b7100000000000000000000000000000000000000000000000000000000600052601160045260246000fd5b600061200c826119ae565b9150612017836119ae565b925082820190508082111561202f5761202e611fd2565b5b92915050565b6000612040826119ae565b915061204b836119ae565b9250828202612059816119ae565b915082820484148315176120705761206f611fd2565b5b5092915050565b7f4e487b7100000000000000000000000000000000000000000000000000000000600052602260045260246000fd5b600060028204905060018216806120be57607f821691505b6020821081036120d1576120d0612077565b5b50919050565b60008190508160005260206000209050919050565b60006020601f8301049050919050565b600082821b905092915050565b6000600883026121397fffffffffffffffffffffffffffffffffffffffffffffffffffffffffffffffff826120fc565b61214386836120fc565b95508019841693508086168417925050509392505050565b600061217661217161216c846119ae565b611d73565b6119ae565b9050919050565b6000819050919050565b6121908361215b565b6121a461219c8261217d565b848454612109565b825550505050565b600090565b6121b96121ac565b6121c4818484612187565b505050565b5b818110156121e8576121dd6000826121b1565b6001810190506121ca565b5050565b601f82111561222d576121fe816120d7565b612207846120ec565b81016020851015612216578190505b61222a612222856120ec565b8301826121c9565b50505b505050565b600082821c905092915050565b600061225060001984600802612232565b1980831691505092915050565b6000612269838361223f565b9150826002028217905092915050565b61228282611c47565b67ffffffffffffffff81111561229b5761229a6119fd565b5b6122a582546120a6565b6122b08282856121ec565b600060209050601f8311600181146122e357600084156122d1578287015190505b6122db858261225d565b865550612343565b601f1984166122f1866120d7565b60005b82811015612319578489015182556001820191506020850194506020810190506122f4565b868310156123365784890151612332601f89168261223f565b8355505b6001600288020188555050505b505050505050565b600081905092915050565b600061236182611c47565b61236b818561234b565b935061237b818560208601611c63565b80840191505092915050565b60006123938284612356565b915081905092915050565b7f436861696e446f6e6f724d61726b6574706c6163653a2043686172697479206160008201527f6c72656164792065786973747300000000000000000000000000000000000000602082015250565b60006123fa602d83611c52565b91506124058261239e565b604082019050919050565b60006020820190508181036000830152612429816123ed565b9050919050565b600061243b826119ae565b9150612446836119ae565b925082820390508181111561245e5761245d611fd2565b5b92915050565b7f436861696e446f6e6f724d61726b6574706c6163653a2043686172697479206160008201527f6c726561647920617070726f7665640000000000000000000000000000000000602082015250565b60006124c0602f83611c52565b91506124cb82612464565b604082019050919050565b600060208201905081810360008301526124ef816124b3565b9050919050565b7f436861696e446f6e6f724d61726b6574706c6163653a20496e76616c6964206960008201527f74656d2049440000000000000000000000000000000000000000000000000000602082015250565b6000612552602683611c52565b915061255d826124f6565b604082019050919050565b6000602082019050818103600083015261258181612545565b9050919050565b60008151905061259781611b28565b92915050565b6000602082840312156125b3576125b26118e3565b5b60006125c184828501612588565b91505092915050565b7f436861696e446f6e6f724d61726b6574706c6163653a20496e7375666669636960008201527f656e7420426c6f6f64546f6b656e730000000000000000000000000000000000602082015250565b6000612626602f83611c52565b9150612631826125ca565b604082019050919050565b6000602082019050818103600083015261265581612619565b9050919050565b60006040820190506126716000830185611bf0565b61267e60208301846119b8565b9392505050565b7f4f776e61626c653a206e6577206f776e657220697320746865207a65726f206160008201527f6464726573730000000000000000000000000000000000000000000000000000602082015250565b60006126e1602683611c52565b91506126ec82612685565b604082019050919050565b60006020820190508181036000830152612710816126d4565b9050919050565b7f4f776e61626c653a2063616c6c6572206973206e6f7420746865206f776e6572600082015250565b600061274d602083611c52565b915061275882612717565b602082019050919050565b6000602082019050818103600083015261277c81612740565b905091905056fea264697066735822122067eccc98be674625fc1d827cfcd30fbd789fba6185df8754d384045fea11239464736f6c63430008130033",
  "linkReferences": {},
  "deployedLinkReferences": {}
}