{
  "_format": "hh-sol-artifact-1",
  "contractName": "ChainDonorMarketplace",
  "sourceName": "contracts/ChainDonorMarketplace.sol",
  "abi": [
    {
      "inputs": [
        {
          "internalType": "address",
          "name": "_tokenAddress",
          "type": "address"
        }
      ],
      "stateMutability": "nonpayable",
      "type": "constructor"
    },
    {
      "anonymous": false,
      "inputs": [
        {
          "indexed": true,
          "internalType": "address",
          "name": "charity",
          "type": "address"
        }
      ],
      "name": "CharityAdded",
      "type": "event"
    },
    {
      "anonymous": false,
      "inputs": [
        {
          "indexed": true,
          "internalType": "address",
          "name": "charity",
          "type": "address"
        }
      ],
      "name": "CharityRemoved",
      "type": "event"
    },
    {
      "anonymous": false,
      "inputs": [
        {
          "indexed": true,
          "internalType": "string",
          "name": "name",
          "type": "string"
        },
        {
          "indexed": true,
          "internalType": "uint256",
          "name": "cost",
          "type": "uint256"
        },
        {
          "indexed": true,
          "internalType": "address",
          "name": "charity",
          "type": "address"
        }
      ],
      "name": "ItemAdded",
      "type": "event"
    },
    {
      "anonymous": false,
      "inputs": [
        {
          "indexed": true,
          "internalType": "address",
          "name": "donor",
          "type": "address"
        },
        {
          "indexed": true,
          "internalType": "uint256",
          "name": "itemId",
          "type": "uint256"
        }
      ],
      "name": "ItemPurchased",
      "type": "event"
    },
    {
      "anonymous": false,
      "inputs": [
        {
          "indexed": true,
          "internalType": "address",
          "name": "previousOwner",
          "type": "address"
        },
        {
          "indexed": true,
          "internalType": "address",
          "name": "newOwner",
          "type": "address"
        }
      ],
      "name": "OwnershipTransferred",
      "type": "event"
    },
    {
      "inputs": [
        {
          "internalType": "address",
          "name": "_charity",
          "type": "address"
        }
      ],
      "name": "addCharity",
      "outputs": [],
      "stateMutability": "nonpayable",
      "type": "function"
    },
    {
      "inputs": [
        {
          "internalType": "address",
          "name": "",
          "type": "address"
        },
        {
          "internalType": "address",
          "name": "",
          "type": "address"
        }
      ],
      "name": "addCharityVotes",
      "outputs": [
        {
          "internalType": "bool",
          "name": "",
          "type": "bool"
        }
      ],
      "stateMutability": "view",
      "type": "function"
    },
    {
      "inputs": [
        {
          "internalType": "string",
          "name": "_name",
          "type": "string"
        },
        {
          "internalType": "uint256",
          "name": "_price",
          "type": "uint256"
        }
      ],
      "name": "addItem",
      "outputs": [],
      "stateMutability": "nonpayable",
      "type": "function"
    },
    {
      "inputs": [
        {
          "internalType": "address",
          "name": "_charity",
          "type": "address"
        }
      ],
      "name": "approveAddCharity",
      "outputs": [],
      "stateMutability": "nonpayable",
      "type": "function"
    },
    {
      "inputs": [
        {
          "internalType": "address",
          "name": "_charity",
          "type": "address"
        }
      ],
      "name": "approveRemoveCharity",
      "outputs": [],
      "stateMutability": "nonpayable",
      "type": "function"
    },
    {
      "inputs": [
        {
          "internalType": "uint256",
          "name": "",
          "type": "uint256"
        }
      ],
      "name": "charities",
      "outputs": [
        {
          "internalType": "address",
          "name": "wallet",
          "type": "address"
        },
        {
          "internalType": "bool",
          "name": "isDeleted",
          "type": "bool"
        },
        {
          "internalType": "bool",
          "name": "isApproved",
          "type": "bool"
        },
        {
          "internalType": "uint256",
          "name": "totalAddVotes",
          "type": "uint256"
        },
        {
          "internalType": "uint256",
          "name": "totalRemoveVotes",
          "type": "uint256"
        }
      ],
      "stateMutability": "view",
      "type": "function"
    },
    {
      "inputs": [
        {
          "internalType": "address",
          "name": "",
          "type": "address"
        }
      ],
      "name": "isApprovedCharity",
      "outputs": [
        {
          "internalType": "bool",
          "name": "",
          "type": "bool"
        }
      ],
      "stateMutability": "view",
      "type": "function"
    },
    {
      "inputs": [
        {
          "internalType": "address",
          "name": "",
          "type": "address"
        }
      ],
      "name": "isCharity",
      "outputs": [
        {
          "internalType": "bool",
          "name": "",
          "type": "bool"
        }
      ],
      "stateMutability": "view",
      "type": "function"
    },
    {
      "inputs": [
        {
          "internalType": "uint256",
          "name": "",
          "type": "uint256"
        }
      ],
      "name": "items",
      "outputs": [
        {
          "internalType": "string",
          "name": "name",
          "type": "string"
        },
        {
          "internalType": "uint256",
          "name": "price",
          "type": "uint256"
        },
        {
          "internalType": "address",
          "name": "charity",
          "type": "address"
        },
        {
          "internalType": "bool",
          "name": "purchased",
          "type": "bool"
        },
        {
          "internalType": "address",
          "name": "purchasedBy",
          "type": "address"
        }
      ],
      "stateMutability": "view",
      "type": "function"
    },
    {
      "inputs": [],
      "name": "owner",
      "outputs": [
        {
          "internalType": "address",
          "name": "",
          "type": "address"
        }
      ],
      "stateMutability": "view",
      "type": "function"
    },
    {
      "inputs": [
        {
          "internalType": "uint256",
          "name": "_itemId",
          "type": "uint256"
        }
      ],
      "name": "purchaseItem",
      "outputs": [],
      "stateMutability": "nonpayable",
      "type": "function"
    },
    {
      "inputs": [
        {
          "internalType": "address",
          "name": "",
          "type": "address"
        },
        {
          "internalType": "address",
          "name": "",
          "type": "address"
        }
      ],
      "name": "removeCharityVotes",
      "outputs": [
        {
          "internalType": "bool",
          "name": "",
          "type": "bool"
        }
      ],
      "stateMutability": "view",
      "type": "function"
    },
    {
      "inputs": [],
      "name": "renounceOwnership",
      "outputs": [],
      "stateMutability": "nonpayable",
      "type": "function"
    },
    {
      "inputs": [],
      "name": "token",
      "outputs": [
        {
          "internalType": "contract BloodToken",
          "name": "",
          "type": "address"
        }
      ],
      "stateMutability": "view",
      "type": "function"
    },
    {
      "inputs": [],
      "name": "totalApprovedCharities",
      "outputs": [
        {
          "internalType": "uint256",
          "name": "",
          "type": "uint256"
        }
      ],
      "stateMutability": "view",
      "type": "function"
    },
    {
      "inputs": [],
      "name": "totalCharities",
      "outputs": [
        {
          "internalType": "uint256",
          "name": "",
          "type": "uint256"
        }
      ],
      "stateMutability": "view",
      "type": "function"
    },
    {
      "inputs": [],
      "name": "totalItems",
      "outputs": [
        {
          "internalType": "uint256",
          "name": "",
          "type": "uint256"
        }
      ],
      "stateMutability": "view",
      "type": "function"
    },
    {
      "inputs": [
        {
          "internalType": "address",
          "name": "newOwner",
          "type": "address"
        }
      ],
      "name": "transferOwnership",
      "outputs": [],
      "stateMutability": "nonpayable",
      "type": "function"
    }
  ],
  "bytecode": "0x60806040523480156200001157600080fd5b50604051620029bd380380620029bd8339818101604052810190620000379190620001d5565b620000576200004b6200009f60201b60201c565b620000a760201b60201c565b80600160006101000a81548173ffffffffffffffffffffffffffffffffffffffff021916908373ffffffffffffffffffffffffffffffffffffffff1602179055505062000207565b600033905090565b60008060009054906101000a900473ffffffffffffffffffffffffffffffffffffffff169050816000806101000a81548173ffffffffffffffffffffffffffffffffffffffff021916908373ffffffffffffffffffffffffffffffffffffffff1602179055508173ffffffffffffffffffffffffffffffffffffffff168173ffffffffffffffffffffffffffffffffffffffff167f8be0079c531659141344cd1fd0a4f28419497f9722a3daafe3b4186f6b6457e060405160405180910390a35050565b600080fd5b600073ffffffffffffffffffffffffffffffffffffffff82169050919050565b60006200019d8262000170565b9050919050565b620001af8162000190565b8114620001bb57600080fd5b50565b600081519050620001cf81620001a4565b92915050565b600060208284031215620001ee57620001ed6200016b565b5b6000620001fe84828501620001be565b91505092915050565b6127a680620002176000396000f3fe608060405234801561001057600080fd5b50600436106101165760003560e01c80638da5cb5b116100a2578063e81ffbef11610071578063e81ffbef146102cf578063f2fde38b146102ff578063f4fbace81461031b578063fb709d2e14610339578063fc0c546a1461036d57610116565b80638da5cb5b14610231578063b857ebbc1461024f578063bfb231d21461027f578063d38ea5bf146102b357610116565b806362d6bbdf116100e957806362d6bbdf146101a3578063715018a6146101bf57806378b14f0a146101c957806383999b67146101e5578063870eda291461021557610116565b8063149282121461011b5780632799276d1461014b5780633885add51461016957806357221fd014610187575b600080fd5b61013560048036038101906101309190611938565b61038b565b6040516101429190611980565b60405180910390f35b6101536103ab565b60405161016091906119b4565b60405180910390f35b6101716103b8565b60405161017e91906119b4565b60405180910390f35b6101a1600480360381019061019c9190611938565b6103be565b005b6101bd60048036038101906101b89190611b41565b61075d565b005b6101c76109bf565b005b6101e360048036038101906101de9190611938565b6109d3565b005b6101ff60048036038101906101fa9190611b9d565b610c7d565b60405161020c9190611980565b60405180910390f35b61022f600480360381019061022a9190611938565b610cac565b005b6102396110d8565b6040516102469190611bec565b60405180910390f35b61026960048036038101906102649190611b9d565b611101565b6040516102769190611980565b60405180910390f35b61029960048036038101906102949190611c07565b611130565b6040516102aa959493929190611cb3565b60405180910390f35b6102cd60048036038101906102c89190611c07565b61124b565b005b6102e960048036038101906102e49190611938565b6114f1565b6040516102f69190611980565b60405180910390f35b61031960048036038101906103149190611938565b611511565b005b610323611594565b60405161033091906119b4565b60405180910390f35b610353600480360381019061034e9190611c07565b6115a1565b604051610364959493929190611d0d565b60405180910390f35b610375611621565b6040516103829190611dbf565b60405180910390f35b60046020528060005260406000206000915054906101000a900460ff1681565b6000600980549050905090565b60055481565b60016002805490501115806104235750600460006103da611647565b73ffffffffffffffffffffffffffffffffffffffff1673ffffffffffffffffffffffffffffffffffffffff16815260200190815260200160002060009054906101000a900460ff165b610462576040517f08c379a000000000000000000000000000000000000000000000000000000000815260040161045990611e4c565b60405180910390fd5b600460008273ffffffffffffffffffffffffffffffffffffffff1673ffffffffffffffffffffffffffffffffffffffff16815260200190815260200160002060009054906101000a900460ff166104ee576040517f08c379a00000000000000000000000000000000000000000000000000000000081526004016104e590611ede565b60405180910390fd5b600860008273ffffffffffffffffffffffffffffffffffffffff1673ffffffffffffffffffffffffffffffffffffffff1681526020019081526020016000206000610537611647565b73ffffffffffffffffffffffffffffffffffffffff1673ffffffffffffffffffffffffffffffffffffffff16815260200190815260200160002060009054906101000a900460ff16156105bf576040517f08c379a00000000000000000000000000000000000000000000000000000000081526004016105b690611f70565b60405180910390fd5b6001600860008373ffffffffffffffffffffffffffffffffffffffff1673ffffffffffffffffffffffffffffffffffffffff168152602001908152602001600020600061060a611647565b73ffffffffffffffffffffffffffffffffffffffff1673ffffffffffffffffffffffffffffffffffffffff16815260200190815260200160002060006101000a81548160ff02191690831515021790555060016002600660008473ffffffffffffffffffffffffffffffffffffffff1673ffffffffffffffffffffffffffffffffffffffff16815260200190815260200160002054815481106106b0576106af611f90565b5b906000526020600020906003020160020160008282546106d09190611fee565b92505081905550600554600280600660008573ffffffffffffffffffffffffffffffffffffffff1673ffffffffffffffffffffffffffffffffffffffff168152602001908152602001600020548154811061072e5761072d611f90565b5b90600052602060002090600302016002015461074a9190612022565b111561075a576107598161164f565b5b50565b60016002805490501115806107c2575060046000610779611647565b73ffffffffffffffffffffffffffffffffffffffff1673ffffffffffffffffffffffffffffffffffffffff16815260200190815260200160002060009054906101000a900460ff165b610801576040517f08c379a00000000000000000000000000000000000000000000000000000000081526004016107f890611e4c565b60405180910390fd5b60096040518060a00160405280848152602001838152602001610822611647565b73ffffffffffffffffffffffffffffffffffffffff168152602001600015158152602001600073ffffffffffffffffffffffffffffffffffffffff168152509080600181540180825580915050600190039060005260206000209060040201600090919091909150600082015181600001908161089f9190612266565b506020820151816001015560408201518160020160006101000a81548173ffffffffffffffffffffffffffffffffffffffff021916908373ffffffffffffffffffffffffffffffffffffffff16021790555060608201518160020160146101000a81548160ff02191690831515021790555060808201518160030160006101000a81548173ffffffffffffffffffffffffffffffffffffffff021916908373ffffffffffffffffffffffffffffffffffffffff1602179055505050610962611647565b73ffffffffffffffffffffffffffffffffffffffff1681836040516109879190612374565b60405180910390207f86c54adc47ec3a71c36e96780c5a75a8c40d00b98b1e4c84e4831d72ca4969fe60405160405180910390a45050565b6109c7611784565b6109d16000611802565b565b6109db611784565b600360008273ffffffffffffffffffffffffffffffffffffffff1673ffffffffffffffffffffffffffffffffffffffff16815260200190815260200160002060009054906101000a900460ff1615610a68576040517f08c379a0000000000000000000000000000000000000000000000000000000008152600401610a5f906123fd565b60405180910390fd5b6001600360008373ffffffffffffffffffffffffffffffffffffffff1673ffffffffffffffffffffffffffffffffffffffff16815260200190815260200160002060006101000a81548160ff0219169083151502179055506000600460008373ffffffffffffffffffffffffffffffffffffffff1673ffffffffffffffffffffffffffffffffffffffff16815260200190815260200160002060006101000a81548160ff02191690831515021790555060026040518060a001604052808373ffffffffffffffffffffffffffffffffffffffff168152602001600015158152602001600015158152602001600081526020016000815250908060018154018082558091505060019003906000526020600020906003020160009091909190915060008201518160000160006101000a81548173ffffffffffffffffffffffffffffffffffffffff021916908373ffffffffffffffffffffffffffffffffffffffff16021790555060208201518160000160146101000a81548160ff02191690831515021790555060408201518160000160156101000a81548160ff021916908315150217905550606082015181600101556080820151816002015550506001600280549050610c37919061241d565b600660008373ffffffffffffffffffffffffffffffffffffffff1673ffffffffffffffffffffffffffffffffffffffff1681526020019081526020016000208190555050565b60086020528160005260406000206020528060005260406000206000915091509054906101000a900460ff1681565b6001600280549050111580610d11575060046000610cc8611647565b73ffffffffffffffffffffffffffffffffffffffff1673ffffffffffffffffffffffffffffffffffffffff16815260200190815260200160002060009054906101000a900460ff165b610d50576040517f08c379a0000000000000000000000000000000000000000000000000000000008152600401610d4790611e4c565b60405180910390fd5b600360008273ffffffffffffffffffffffffffffffffffffffff1673ffffffffffffffffffffffffffffffffffffffff16815260200190815260200160002060009054906101000a900460ff16610ddc576040517f08c379a0000000000000000000000000000000000000000000000000000000008152600401610dd390611ede565b60405180910390fd5b600460008273ffffffffffffffffffffffffffffffffffffffff1673ffffffffffffffffffffffffffffffffffffffff16815260200190815260200160002060009054906101000a900460ff1615610e69576040517f08c379a0000000000000000000000000000000000000000000000000000000008152600401610e60906124c3565b60405180910390fd5b600760008273ffffffffffffffffffffffffffffffffffffffff1673ffffffffffffffffffffffffffffffffffffffff1681526020019081526020016000206000610eb2611647565b73ffffffffffffffffffffffffffffffffffffffff1673ffffffffffffffffffffffffffffffffffffffff16815260200190815260200160002060009054906101000a900460ff1615610f3a576040517f08c379a0000000000000000000000000000000000000000000000000000000008152600401610f3190611f70565b60405180910390fd5b6001600760008373ffffffffffffffffffffffffffffffffffffffff1673ffffffffffffffffffffffffffffffffffffffff1681526020019081526020016000206000610f85611647565b73ffffffffffffffffffffffffffffffffffffffff1673ffffffffffffffffffffffffffffffffffffffff16815260200190815260200160002060006101000a81548160ff02191690831515021790555060016002600660008473ffffffffffffffffffffffffffffffffffffffff1673ffffffffffffffffffffffffffffffffffffffff168152602001908152602001600020548154811061102b5761102a611f90565b5b9060005260206000209060030201600101600082825461104b9190611fee565b92505081905550600554600280600660008573ffffffffffffffffffffffffffffffffffffffff1673ffffffffffffffffffffffffffffffffffffffff16815260200190815260200160002054815481106110a9576110a8611f90565b5b9060005260206000209060030201600101546110c59190612022565b11156110d5576110d48161164f565b5b50565b60008060009054906101000a900473ffffffffffffffffffffffffffffffffffffffff16905090565b60076020528160005260406000206020528060005260406000206000915091509054906101000a900460ff1681565b6009818154811061114057600080fd5b906000526020600020906004020160009150905080600001805461116390612093565b80601f016020809104026020016040519081016040528092919081815260200182805461118f90612093565b80156111dc5780601f106111b1576101008083540402835291602001916111dc565b820191906000526020600020905b8154815290600101906020018083116111bf57829003601f168201915b5050505050908060010154908060020160009054906101000a900473ffffffffffffffffffffffffffffffffffffffff16908060020160149054906101000a900460ff16908060030160009054906101000a900473ffffffffffffffffffffffffffffffffffffffff16905085565b6009805490508110611292576040517f08c379a000000000000000000000000000000000000000000000000000000000815260040161128990612555565b60405180910390fd5b6000600982815481106112a8576112a7611f90565b5b906000526020600020906004020190508060010154600160009054906101000a900473ffffffffffffffffffffffffffffffffffffffff1673ffffffffffffffffffffffffffffffffffffffff166370a08231611303611647565b6040518263ffffffff1660e01b815260040161131f9190611bec565b602060405180830381865afa15801561133c573d6000803e3d6000fd5b505050506040513d601f19601f82011682018060405250810190611360919061258a565b10156113a1576040517f08c379a000000000000000000000000000000000000000000000000000000000815260040161139890612629565b60405180910390fd5b600160009054906101000a900473ffffffffffffffffffffffffffffffffffffffff1673ffffffffffffffffffffffffffffffffffffffff166379cc67906113e7611647565b83600101546040518363ffffffff1660e01b8152600401611409929190612649565b600060405180830381600087803b15801561142357600080fd5b505af1158015611437573d6000803e3d6000fd5b5050505060018160020160146101000a81548160ff021916908315150217905550611460611647565b8160030160006101000a81548173ffffffffffffffffffffffffffffffffffffffff021916908373ffffffffffffffffffffffffffffffffffffffff160217905550816114ab611647565b73ffffffffffffffffffffffffffffffffffffffff167f792fe07c0f3ce4ef42df79c4a2b07925168cddbaabf7a7ef1351f027a376031360405160405180910390a35050565b60036020528060005260406000206000915054906101000a900460ff1681565b611519611784565b600073ffffffffffffffffffffffffffffffffffffffff168173ffffffffffffffffffffffffffffffffffffffff1603611588576040517f08c379a000000000000000000000000000000000000000000000000000000000815260040161157f906126e4565b60405180910390fd5b61159181611802565b50565b6000600280549050905090565b600281815481106115b157600080fd5b90600052602060002090600302016000915090508060000160009054906101000a900473ffffffffffffffffffffffffffffffffffffffff16908060000160149054906101000a900460ff16908060000160159054906101000a900460ff16908060010154908060020154905085565b600160009054906101000a900473ffffffffffffffffffffffffffffffffffffffff1681565b600033905090565b6001600460008373ffffffffffffffffffffffffffffffffffffffff1673ffffffffffffffffffffffffffffffffffffffff16815260200190815260200160002060006101000a81548160ff02191690831515021790555060016002600660008473ffffffffffffffffffffffffffffffffffffffff1673ffffffffffffffffffffffffffffffffffffffff16815260200190815260200160002054815481106116fc576116fb611f90565b5b906000526020600020906003020160000160156101000a81548160ff0219169083151502179055506001600560008282546117379190611fee565b925050819055508073ffffffffffffffffffffffffffffffffffffffff167fc17dc19a503d796a336a016f10743118db2bdadb16ac4c19aff016075609863560405160405180910390a250565b61178c611647565b73ffffffffffffffffffffffffffffffffffffffff166117aa6110d8565b73ffffffffffffffffffffffffffffffffffffffff1614611800576040517f08c379a00000000000000000000000000000000000000000000000000000000081526004016117f790612750565b60405180910390fd5b565b60008060009054906101000a900473ffffffffffffffffffffffffffffffffffffffff169050816000806101000a81548173ffffffffffffffffffffffffffffffffffffffff021916908373ffffffffffffffffffffffffffffffffffffffff1602179055508173ffffffffffffffffffffffffffffffffffffffff168173ffffffffffffffffffffffffffffffffffffffff167f8be0079c531659141344cd1fd0a4f28419497f9722a3daafe3b4186f6b6457e060405160405180910390a35050565b6000604051905090565b600080fd5b600080fd5b600073ffffffffffffffffffffffffffffffffffffffff82169050919050565b6000611905826118da565b9050919050565b611915816118fa565b811461192057600080fd5b50565b6000813590506119328161190c565b92915050565b60006020828403121561194e5761194d6118d0565b5b600061195c84828501611923565b91505092915050565b60008115159050919050565b61197a81611965565b82525050565b60006020820190506119956000830184611971565b92915050565b6000819050919050565b6119ae8161199b565b82525050565b60006020820190506119c960008301846119a5565b92915050565b600080fd5b600080fd5b6000601f19601f8301169050919050565b7f4e487b7100000000000000000000000000000000000000000000000000000000600052604160045260246000fd5b611a22826119d9565b810181811067ffffffffffffffff82111715611a4157611a406119ea565b5b80604052505050565b6000611a546118c6565b9050611a608282611a19565b919050565b600067ffffffffffffffff821115611a8057611a7f6119ea565b5b611a89826119d9565b9050602081019050919050565b82818337600083830152505050565b6000611ab8611ab384611a65565b611a4a565b905082815260208101848484011115611ad457611ad36119d4565b5b611adf848285611a96565b509392505050565b600082601f830112611afc57611afb6119cf565b5b8135611b0c848260208601611aa5565b91505092915050565b611b1e8161199b565b8114611b2957600080fd5b50565b600081359050611b3b81611b15565b92915050565b60008060408385031215611b5857611b576118d0565b5b600083013567ffffffffffffffff811115611b7657611b756118d5565b5b611b8285828601611ae7565b9250506020611b9385828601611b2c565b9150509250929050565b60008060408385031215611bb457611bb36118d0565b5b6000611bc285828601611923565b9250506020611bd385828601611923565b9150509250929050565b611be6816118fa565b82525050565b6000602082019050611c016000830184611bdd565b92915050565b600060208284031215611c1d57611c1c6118d0565b5b6000611c2b84828501611b2c565b91505092915050565b600081519050919050565b600082825260208201905092915050565b60005b83811015611c6e578082015181840152602081019050611c53565b60008484015250505050565b6000611c8582611c34565b611c8f8185611c3f565b9350611c9f818560208601611c50565b611ca8816119d9565b840191505092915050565b600060a0820190508181036000830152611ccd8188611c7a565b9050611cdc60208301876119a5565b611ce96040830186611bdd565b611cf66060830185611971565b611d036080830184611bdd565b9695505050505050565b600060a082019050611d226000830188611bdd565b611d2f6020830187611971565b611d3c6040830186611971565b611d4960608301856119a5565b611d5660808301846119a5565b9695505050505050565b6000819050919050565b6000611d85611d80611d7b846118da565b611d60565b6118da565b9050919050565b6000611d9782611d6a565b9050919050565b6000611da982611d8c565b9050919050565b611db981611d9e565b82525050565b6000602082019050611dd46000830184611db0565b92915050565b7f436861696e446f6e6f724d61726b6574706c6163653a2053656e64657220697360008201527f206e6f7420612063686172697479000000000000000000000000000000000000602082015250565b6000611e36602e83611c3f565b9150611e4182611dda565b604082019050919050565b60006020820190508181036000830152611e6581611e29565b9050919050565b7f436861696e446f6e6f724d61726b6574706c6163653a2043686172697479206460008201527f6f6573206e6f7420657869737400000000000000000000000000000000000000602082015250565b6000611ec8602d83611c3f565b9150611ed382611e6c565b604082019050919050565b60006020820190508181036000830152611ef781611ebb565b9050919050565b7f436861696e446f6e6f724d61726b6574706c6163653a2043686172697479206160008201527f6c726561647920766f7465640000000000000000000000000000000000000000602082015250565b6000611f5a602c83611c3f565b9150611f6582611efe565b604082019050919050565b60006020820190508181036000830152611f8981611f4d565b9050919050565b7f4e487b7100000000000000000000000000000000000000000000000000000000600052603260045260246000fd5b7f4e487b7100000000000000000000000000000000000000000000000000000000600052601160045260246000fd5b6000611ff98261199b565b91506120048361199b565b925082820190508082111561201c5761201b611fbf565b5b92915050565b600061202d8261199b565b91506120388361199b565b92508282026120468161199b565b9150828204841483151761205d5761205c611fbf565b5b5092915050565b7f4e487b7100000000000000000000000000000000000000000000000000000000600052602260045260246000fd5b600060028204905060018216806120ab57607f821691505b6020821081036120be576120bd612064565b5b50919050565b60008190508160005260206000209050919050565b60006020601f8301049050919050565b600082821b905092915050565b6000600883026121267fffffffffffffffffffffffffffffffffffffffffffffffffffffffffffffffff826120e9565b61213086836120e9565b95508019841693508086168417925050509392505050565b600061216361215e6121598461199b565b611d60565b61199b565b9050919050565b6000819050919050565b61217d83612148565b6121916121898261216a565b8484546120f6565b825550505050565b600090565b6121a6612199565b6121b1818484612174565b505050565b5b818110156121d5576121ca60008261219e565b6001810190506121b7565b5050565b601f82111561221a576121eb816120c4565b6121f4846120d9565b81016020851015612203578190505b61221761220f856120d9565b8301826121b6565b50505b505050565b600082821c905092915050565b600061223d6000198460080261221f565b1980831691505092915050565b6000612256838361222c565b9150826002028217905092915050565b61226f82611c34565b67ffffffffffffffff811115612288576122876119ea565b5b6122928254612093565b61229d8282856121d9565b600060209050601f8311600181146122d057600084156122be578287015190505b6122c8858261224a565b865550612330565b601f1984166122de866120c4565b60005b82811015612306578489015182556001820191506020850194506020810190506122e1565b86831015612323578489015161231f601f89168261222c565b8355505b6001600288020188555050505b505050505050565b600081905092915050565b600061234e82611c34565b6123588185612338565b9350612368818560208601611c50565b80840191505092915050565b60006123808284612343565b915081905092915050565b7f436861696e446f6e6f724d61726b6574706c6163653a2043686172697479206160008201527f6c72656164792065786973747300000000000000000000000000000000000000602082015250565b60006123e7602d83611c3f565b91506123f28261238b565b604082019050919050565b60006020820190508181036000830152612416816123da565b9050919050565b60006124288261199b565b91506124338361199b565b925082820390508181111561244b5761244a611fbf565b5b92915050565b7f436861696e446f6e6f724d61726b6574706c6163653a2043686172697479206160008201527f6c726561647920617070726f7665640000000000000000000000000000000000602082015250565b60006124ad602f83611c3f565b91506124b882612451565b604082019050919050565b600060208201905081810360008301526124dc816124a0565b9050919050565b7f436861696e446f6e6f724d61726b6574706c6163653a20496e76616c6964206960008201527f74656d2049440000000000000000000000000000000000000000000000000000602082015250565b600061253f602683611c3f565b915061254a826124e3565b604082019050919050565b6000602082019050818103600083015261256e81612532565b9050919050565b60008151905061258481611b15565b92915050565b6000602082840312156125a05761259f6118d0565b5b60006125ae84828501612575565b91505092915050565b7f436861696e446f6e6f724d61726b6574706c6163653a20496e7375666669636960008201527f656e7420426c6f6f64546f6b656e730000000000000000000000000000000000602082015250565b6000612613602f83611c3f565b915061261e826125b7565b604082019050919050565b6000602082019050818103600083015261264281612606565b9050919050565b600060408201905061265e6000830185611bdd565b61266b60208301846119a5565b9392505050565b7f4f776e61626c653a206e6577206f776e657220697320746865207a65726f206160008201527f6464726573730000000000000000000000000000000000000000000000000000602082015250565b60006126ce602683611c3f565b91506126d982612672565b604082019050919050565b600060208201905081810360008301526126fd816126c1565b9050919050565b7f4f776e61626c653a2063616c6c6572206973206e6f7420746865206f776e6572600082015250565b600061273a602083611c3f565b915061274582612704565b602082019050919050565b600060208201905081810360008301526127698161272d565b905091905056fea2646970667358221220abf14b5cdd252a3cf2c7b2efee69ed971eb752a9bcb13c1a035a84c39ebc186964736f6c63430008130033",
  "linkReferences": {},
  "deployedLinkReferences": {}
}