{
  "_format": "hh-sol-artifact-1",
  "contractName": "ChainDonorHub",
  "sourceName": "contracts/ChainDonorHub.sol",
  "abi": [
    {
      "inputs": [
        {
          "internalType": "address",
          "name": "_tokenAddress",
          "type": "address"
        }
      ],
      "stateMutability": "nonpayable",
      "type": "constructor"
    },
    {
      "anonymous": false,
      "inputs": [
        {
          "indexed": true,
          "internalType": "address",
          "name": "institution",
          "type": "address"
        },
        {
          "indexed": true,
          "internalType": "address",
          "name": "donor",
          "type": "address"
        },
        {
          "indexed": false,
          "internalType": "uint256",
          "name": "index",
          "type": "uint256"
        }
      ],
      "name": "DonationApproved",
      "type": "event"
    },
    {
      "anonymous": false,
      "inputs": [
        {
          "indexed": true,
          "internalType": "address",
          "name": "donor",
          "type": "address"
        },
        {
          "indexed": false,
          "internalType": "uint256",
          "name": "amount",
          "type": "uint256"
        }
      ],
      "name": "DonationClaimed",
      "type": "event"
    },
    {
      "anonymous": false,
      "inputs": [
        {
          "indexed": true,
          "internalType": "address",
          "name": "donor",
          "type": "address"
        },
        {
          "indexed": false,
          "internalType": "uint256",
          "name": "amount",
          "type": "uint256"
        }
      ],
      "name": "DonationCreated",
      "type": "event"
    },
    {
      "anonymous": false,
      "inputs": [
        {
          "indexed": false,
          "internalType": "address",
          "name": "institution",
          "type": "address"
        }
      ],
      "name": "InstitutionAdded",
      "type": "event"
    },
    {
      "anonymous": false,
      "inputs": [
        {
          "indexed": false,
          "internalType": "address",
          "name": "institution",
          "type": "address"
        }
      ],
      "name": "InstitutionRemoved",
      "type": "event"
    },
    {
      "anonymous": false,
      "inputs": [
        {
          "indexed": true,
          "internalType": "address",
          "name": "previousOwner",
          "type": "address"
        },
        {
          "indexed": true,
          "internalType": "address",
          "name": "newOwner",
          "type": "address"
        }
      ],
      "name": "OwnershipTransferred",
      "type": "event"
    },
    {
      "inputs": [
        {
          "internalType": "address",
          "name": "_institution",
          "type": "address"
        }
      ],
      "name": "addMedicalInstitution",
      "outputs": [],
      "stateMutability": "nonpayable",
      "type": "function"
    },
    {
      "inputs": [
        {
          "internalType": "uint256",
          "name": "_index",
          "type": "uint256"
        }
      ],
      "name": "approveDonation",
      "outputs": [],
      "stateMutability": "nonpayable",
      "type": "function"
    },
    {
      "inputs": [
        {
          "internalType": "uint256",
          "name": "_index",
          "type": "uint256"
        }
      ],
      "name": "claimReward",
      "outputs": [],
      "stateMutability": "nonpayable",
      "type": "function"
    },
    {
      "inputs": [
        {
          "internalType": "address",
          "name": "_donor",
          "type": "address"
        },
        {
          "internalType": "uint256",
          "name": "_amount",
          "type": "uint256"
        }
      ],
      "name": "createDonation",
      "outputs": [],
      "stateMutability": "nonpayable",
      "type": "function"
    },
    {
      "inputs": [
        {
          "internalType": "uint256",
          "name": "",
          "type": "uint256"
        }
      ],
      "name": "donations",
      "outputs": [
        {
          "internalType": "address",
          "name": "donor",
          "type": "address"
        },
        {
          "internalType": "uint256",
          "name": "amount",
          "type": "uint256"
        },
        {
          "internalType": "uint256",
          "name": "approvals",
          "type": "uint256"
        },
        {
          "internalType": "bool",
          "name": "claimed",
          "type": "bool"
        },
        {
          "internalType": "bool",
          "name": "isApproved",
          "type": "bool"
        }
      ],
      "stateMutability": "view",
      "type": "function"
    },
    {
      "inputs": [
        {
          "internalType": "address",
          "name": "",
          "type": "address"
        },
        {
          "internalType": "uint256",
          "name": "",
          "type": "uint256"
        }
      ],
      "name": "donorDonations",
      "outputs": [
        {
          "internalType": "uint256",
          "name": "",
          "type": "uint256"
        }
      ],
      "stateMutability": "view",
      "type": "function"
    },
    {
      "inputs": [
        {
          "internalType": "uint256",
          "name": "",
          "type": "uint256"
        }
      ],
      "name": "donors",
      "outputs": [
        {
          "internalType": "bytes32",
          "name": "hashPersonalInfo",
          "type": "bytes32"
        },
        {
          "internalType": "address",
          "name": "wallet",
          "type": "address"
        },
        {
          "internalType": "bool",
          "name": "isDeleted",
          "type": "bool"
        }
      ],
      "stateMutability": "view",
      "type": "function"
    },
    {
      "inputs": [
        {
          "internalType": "address",
          "name": "",
          "type": "address"
        }
      ],
      "name": "isDonor",
      "outputs": [
        {
          "internalType": "bool",
          "name": "",
          "type": "bool"
        }
      ],
      "stateMutability": "view",
      "type": "function"
    },
    {
      "inputs": [
        {
          "internalType": "address",
          "name": "",
          "type": "address"
        }
      ],
      "name": "isMedicalInstitution",
      "outputs": [
        {
          "internalType": "bool",
          "name": "",
          "type": "bool"
        }
      ],
      "stateMutability": "view",
      "type": "function"
    },
    {
      "inputs": [
        {
          "internalType": "uint256",
          "name": "",
          "type": "uint256"
        }
      ],
      "name": "medicalInstitutions",
      "outputs": [
        {
          "internalType": "address",
          "name": "wallet",
          "type": "address"
        },
        {
          "internalType": "bool",
          "name": "isDeleted",
          "type": "bool"
        }
      ],
      "stateMutability": "view",
      "type": "function"
    },
    {
      "inputs": [],
      "name": "owner",
      "outputs": [
        {
          "internalType": "address",
          "name": "",
          "type": "address"
        }
      ],
      "stateMutability": "view",
      "type": "function"
    },
    {
      "inputs": [
        {
          "internalType": "bytes32",
          "name": "_hashPersonalInfo",
          "type": "bytes32"
        }
      ],
      "name": "registerDonor",
      "outputs": [],
      "stateMutability": "nonpayable",
      "type": "function"
    },
    {
      "inputs": [],
      "name": "removeDonor",
      "outputs": [],
      "stateMutability": "nonpayable",
      "type": "function"
    },
    {
      "inputs": [
        {
          "internalType": "address",
          "name": "_institution",
          "type": "address"
        }
      ],
      "name": "removeMedicalInstitution",
      "outputs": [],
      "stateMutability": "nonpayable",
      "type": "function"
    },
    {
      "inputs": [],
      "name": "renounceOwnership",
      "outputs": [],
      "stateMutability": "nonpayable",
      "type": "function"
    },
    {
      "inputs": [],
      "name": "token",
      "outputs": [
        {
          "internalType": "contract BloodToken",
          "name": "",
          "type": "address"
        }
      ],
      "stateMutability": "view",
      "type": "function"
    },
    {
      "inputs": [],
      "name": "totalDonations",
      "outputs": [
        {
          "internalType": "uint256",
          "name": "",
          "type": "uint256"
        }
      ],
      "stateMutability": "view",
      "type": "function"
    },
    {
      "inputs": [],
      "name": "totalDonors",
      "outputs": [
        {
          "internalType": "uint256",
          "name": "",
          "type": "uint256"
        }
      ],
      "stateMutability": "view",
      "type": "function"
    },
    {
      "inputs": [],
      "name": "totalInstitutions",
      "outputs": [
        {
          "internalType": "uint256",
          "name": "",
          "type": "uint256"
        }
      ],
      "stateMutability": "view",
      "type": "function"
    },
    {
      "inputs": [
        {
          "internalType": "address",
          "name": "newOwner",
          "type": "address"
        }
      ],
      "name": "transferOwnership",
      "outputs": [],
      "stateMutability": "nonpayable",
      "type": "function"
    }
  ],
  "bytecode": "0x608060405260006005553480156200001657600080fd5b506040516200278a3803806200278a83398181016040528101906200003c9190620001da565b6200005c62000050620000a460201b60201c565b620000ac60201b60201c565b80600160006101000a81548173ffffffffffffffffffffffffffffffffffffffff021916908373ffffffffffffffffffffffffffffffffffffffff160217905550506200020c565b600033905090565b60008060009054906101000a900473ffffffffffffffffffffffffffffffffffffffff169050816000806101000a81548173ffffffffffffffffffffffffffffffffffffffff021916908373ffffffffffffffffffffffffffffffffffffffff1602179055508173ffffffffffffffffffffffffffffffffffffffff168173ffffffffffffffffffffffffffffffffffffffff167f8be0079c531659141344cd1fd0a4f28419497f9722a3daafe3b4186f6b6457e060405160405180910390a35050565b600080fd5b600073ffffffffffffffffffffffffffffffffffffffff82169050919050565b6000620001a28262000175565b9050919050565b620001b48162000195565b8114620001c057600080fd5b50565b600081519050620001d481620001a9565b92915050565b600060208284031215620001f357620001f262000170565b5b60006200020384828501620001c3565b91505092915050565b61256e806200021c6000396000f3fe608060405234801561001057600080fd5b506004361061012c5760003560e01c8063acce223c116100ad578063e7df4c7f11610071578063e7df4c7f1461030b578063f2fde38b1461033c578063f8626af814610358578063f92b1d191461038c578063fc0c546a146103a85761012c565b8063acce223c1461027b578063ae169a5014610297578063c54f7d21146102b3578063c69f34a3146102d1578063de2ed893146102ed5761012c565b80634395e1bf116100f45780634395e1bf146101d55780634abfa163146102055780634b14eee714610237578063715018a6146102535780638da5cb5b1461025d5761012c565b80631bd071151461013157806325c302e41461014d5780632bc3d7aa1461016b5780633d4d4ef21461019b57806343003626146101a5575b600080fd5b61014b600480360381019061014691906119df565b6103c6565b005b61015561061a565b6040516101629190611a25565b60405180910390f35b610185600480360381019061018091906119df565b610627565b6040516101929190611a5b565b60405180910390f35b6101a3610647565b005b6101bf60048036038101906101ba91906119df565b6108e5565b6040516101cc9190611a5b565b60405180910390f35b6101ef60048036038101906101ea9190611aa2565b610905565b6040516101fc9190611a25565b60405180910390f35b61021f600480360381019061021a9190611ae2565b610936565b60405161022e93929190611b37565b60405180910390f35b610251600480360381019061024c91906119df565b61099d565b005b61025b610ab0565b005b610265610ac4565b6040516102729190611b6e565b60405180910390f35b61029560048036038101906102909190611aa2565b610aed565b005b6102b160048036038101906102ac9190611ae2565b610e31565b005b6102bb611107565b6040516102c89190611a25565b60405180910390f35b6102eb60048036038101906102e69190611ae2565b61110d565b005b6102f561146e565b6040516103029190611a25565b60405180910390f35b61032560048036038101906103209190611ae2565b61147b565b604051610333929190611b89565b60405180910390f35b610356600480360381019061035191906119df565b6114d8565b005b610372600480360381019061036d9190611ae2565b61155b565b604051610383959493929190611bb2565b60405180910390f35b6103a660048036038101906103a19190611c31565b6115db565b005b6103b061180c565b6040516103bd9190611cbd565b60405180910390f35b6103ce611832565b600460008273ffffffffffffffffffffffffffffffffffffffff1673ffffffffffffffffffffffffffffffffffffffff16815260200190815260200160002060009054906101000a900460ff161561045b576040517f08c379a000000000000000000000000000000000000000000000000000000000815260040161045290611d5b565b60405180910390fd5b600260405180604001604052808373ffffffffffffffffffffffffffffffffffffffff168152602001600015158152509080600181540180825580915050600190039060005260206000200160009091909190915060008201518160000160006101000a81548173ffffffffffffffffffffffffffffffffffffffff021916908373ffffffffffffffffffffffffffffffffffffffff16021790555060208201518160000160146101000a81548160ff02191690831515021790555050506001600460008373ffffffffffffffffffffffffffffffffffffffff1673ffffffffffffffffffffffffffffffffffffffff16815260200190815260200160002060006101000a81548160ff02191690831515021790555060016002805490506105839190611daa565b600360008373ffffffffffffffffffffffffffffffffffffffff1673ffffffffffffffffffffffffffffffffffffffff168152602001908152602001600020819055506001600560008282546105d99190611dde565b925050819055507f0bfb62b1fbb00013554ed3ff21ca179a519aee08ccf015aed3482362436b6b358160405161060f9190611b6e565b60405180910390a150565b6000600680549050905090565b60086020528060005260406000206000915054906101000a900460ff1681565b600073ffffffffffffffffffffffffffffffffffffffff1660066007600061066d6118b0565b73ffffffffffffffffffffffffffffffffffffffff1673ffffffffffffffffffffffffffffffffffffffff16815260200190815260200160002054815481106106b9576106b8611e12565b5b906000526020600020906002020160010160009054906101000a900473ffffffffffffffffffffffffffffffffffffffff1673ffffffffffffffffffffffffffffffffffffffff1603610741576040517f08c379a000000000000000000000000000000000000000000000000000000000815260040161073890611eb3565b60405180910390fd5b600015156006600760006107536118b0565b73ffffffffffffffffffffffffffffffffffffffff1673ffffffffffffffffffffffffffffffffffffffff168152602001908152602001600020548154811061079f5761079e611e12565b5b906000526020600020906002020160010160149054906101000a900460ff16151514610800576040517f08c379a00000000000000000000000000000000000000000000000000000000081526004016107f790611f45565b60405180910390fd5b60016006600760006108106118b0565b73ffffffffffffffffffffffffffffffffffffffff1673ffffffffffffffffffffffffffffffffffffffff168152602001908152602001600020548154811061085c5761085b611e12565b5b906000526020600020906002020160010160146101000a81548160ff0219169083151502179055506000600860006108926118b0565b73ffffffffffffffffffffffffffffffffffffffff1673ffffffffffffffffffffffffffffffffffffffff16815260200190815260200160002060006101000a81548160ff021916908315150217905550565b60046020528060005260406000206000915054906101000a900460ff1681565b6009602052816000526040600020818154811061092157600080fd5b90600052602060002001600091509150505481565b6006818154811061094657600080fd5b90600052602060002090600202016000915090508060000154908060010160009054906101000a900473ffffffffffffffffffffffffffffffffffffffff16908060010160149054906101000a900460ff16905083565b6109a5611832565b6000600460008373ffffffffffffffffffffffffffffffffffffffff1673ffffffffffffffffffffffffffffffffffffffff16815260200190815260200160002060006101000a81548160ff02191690831515021790555060016002600360008473ffffffffffffffffffffffffffffffffffffffff1673ffffffffffffffffffffffffffffffffffffffff1681526020019081526020016000205481548110610a5257610a51611e12565b5b9060005260206000200160000160146101000a81548160ff0219169083151502179055507f1b0b878d06167e60e076b932df41de2b519d804c80445961e705ffbc98091f8781604051610aa59190611b6e565b60405180910390a150565b610ab8611832565b610ac260006118b8565b565b60008060009054906101000a900473ffffffffffffffffffffffffffffffffffffffff16905090565b6001151560046000610afd6118b0565b73ffffffffffffffffffffffffffffffffffffffff1673ffffffffffffffffffffffffffffffffffffffff16815260200190815260200160002060009054906101000a900460ff16151514610b87576040517f08c379a0000000000000000000000000000000000000000000000000000000008152600401610b7e90611fd7565b60405180910390fd5b600860008373ffffffffffffffffffffffffffffffffffffffff1673ffffffffffffffffffffffffffffffffffffffff16815260200190815260200160002060009054906101000a900460ff16610c13576040517f08c379a0000000000000000000000000000000000000000000000000000000008152600401610c0a90611eb3565b60405180910390fd5b60008111610c56576040517f08c379a0000000000000000000000000000000000000000000000000000000008152600401610c4d90612069565b60405180910390fd5b60006040518060a001604052808473ffffffffffffffffffffffffffffffffffffffff16815260200183815260200160008152602001600015158152602001600015158152509050600a81908060018154018082558091505060019003906000526020600020906004020160009091909190915060008201518160000160006101000a81548173ffffffffffffffffffffffffffffffffffffffff021916908373ffffffffffffffffffffffffffffffffffffffff160217905550602082015181600101556040820151816002015560608201518160030160006101000a81548160ff02191690831515021790555060808201518160030160016101000a81548160ff0219169083151502179055505050600960008473ffffffffffffffffffffffffffffffffffffffff1673ffffffffffffffffffffffffffffffffffffffff1681526020019081526020016000206001600a80549050610db89190611daa565b90806001815401808255809150506001900390600052602060002001600090919091909150558273ffffffffffffffffffffffffffffffffffffffff167fcbf2f8dcc2e57120df4e64e31e8bcb10fffef66c2a8f7e39ceb4061bb72c388583604051610e249190611a25565b60405180910390a2505050565b6001151560086000610e416118b0565b73ffffffffffffffffffffffffffffffffffffffff1673ffffffffffffffffffffffffffffffffffffffff16815260200190815260200160002060009054906101000a900460ff16151514610ecb576040517f08c379a0000000000000000000000000000000000000000000000000000000008152600401610ec2906120fb565b60405180910390fd5b600a8181548110610edf57610ede611e12565b5b906000526020600020906004020160030160019054906101000a900460ff16610f3d576040517f08c379a0000000000000000000000000000000000000000000000000000000008152600401610f349061218d565b60405180910390fd5b600a8181548110610f5157610f50611e12565b5b906000526020600020906004020160030160009054906101000a900460ff1615610fb0576040517f08c379a0000000000000000000000000000000000000000000000000000000008152600401610fa7906121f9565b60405180910390fd5b6000600a8281548110610fc657610fc5611e12565b5b9060005260206000209060040201600101549050600160009054906101000a900473ffffffffffffffffffffffffffffffffffffffff1673ffffffffffffffffffffffffffffffffffffffff166340c10f196110206118b0565b836040518363ffffffff1660e01b815260040161103e929190612219565b600060405180830381600087803b15801561105857600080fd5b505af115801561106c573d6000803e3d6000fd5b505050506001600a838154811061108657611085611e12565b5b906000526020600020906004020160030160006101000a81548160ff0219169083151502179055506110b66118b0565b73ffffffffffffffffffffffffffffffffffffffff167fcea3075acde4774a33609cbbcdc18b7f2e492e6c21502369ccb7d7dbac607c34826040516110fb9190611a25565b60405180910390a25050565b60055481565b600115156004600061111d6118b0565b73ffffffffffffffffffffffffffffffffffffffff1673ffffffffffffffffffffffffffffffffffffffff16815260200190815260200160002060009054906101000a900460ff161515146111a7576040517f08c379a000000000000000000000000000000000000000000000000000000000815260040161119e90611fd7565b60405180910390fd5b600b600082815260200190815260200160002060006111c46118b0565b73ffffffffffffffffffffffffffffffffffffffff1673ffffffffffffffffffffffffffffffffffffffff16815260200190815260200160002060009054906101000a900460ff161561124c576040517f08c379a0000000000000000000000000000000000000000000000000000000008152600401611243906122b4565b60405180910390fd5b600a805490508110611293576040517f08c379a000000000000000000000000000000000000000000000000000000000815260040161128a90612346565b60405180910390fd5b6001600a82815481106112a9576112a8611e12565b5b906000526020600020906004020160020160008282546112c99190611dde565b925050819055506001600b600083815260200190815260200160002060006112ef6118b0565b73ffffffffffffffffffffffffffffffffffffffff1673ffffffffffffffffffffffffffffffffffffffff16815260200190815260200160002060006101000a81548160ff0219169083151502179055506005546002600a838154811061135957611358611e12565b5b9060005260206000209060040201600201546113759190612366565b11156113ba576001600a828154811061139157611390611e12565b5b906000526020600020906004020160030160016101000a81548160ff0219169083151502179055505b600a81815481106113ce576113cd611e12565b5b906000526020600020906004020160000160009054906101000a900473ffffffffffffffffffffffffffffffffffffffff1673ffffffffffffffffffffffffffffffffffffffff1661141e6118b0565b73ffffffffffffffffffffffffffffffffffffffff167f57bb83c14f9d3f349bd0d5d662e957c987a4854456300b818e76c7978ea2e5b8836040516114639190611a25565b60405180910390a350565b6000600a80549050905090565b6002818154811061148b57600080fd5b906000526020600020016000915090508060000160009054906101000a900473ffffffffffffffffffffffffffffffffffffffff16908060000160149054906101000a900460ff16905082565b6114e0611832565b600073ffffffffffffffffffffffffffffffffffffffff168173ffffffffffffffffffffffffffffffffffffffff160361154f576040517f08c379a00000000000000000000000000000000000000000000000000000000081526004016115469061241a565b60405180910390fd5b611558816118b8565b50565b600a818154811061156b57600080fd5b90600052602060002090600402016000915090508060000160009054906101000a900473ffffffffffffffffffffffffffffffffffffffff16908060010154908060020154908060030160009054906101000a900460ff16908060030160019054906101000a900460ff16905085565b600860006115e76118b0565b73ffffffffffffffffffffffffffffffffffffffff1673ffffffffffffffffffffffffffffffffffffffff16815260200190815260200160002060009054906101000a900460ff161561166f576040517f08c379a0000000000000000000000000000000000000000000000000000000008152600401611666906124ac565b60405180910390fd5b6000604051806060016040528083815260200161168a6118b0565b73ffffffffffffffffffffffffffffffffffffffff16815260200160001515815250905060068190806001815401808255809150506001900390600052602060002090600202016000909190919091506000820151816000015560208201518160010160006101000a81548173ffffffffffffffffffffffffffffffffffffffff021916908373ffffffffffffffffffffffffffffffffffffffff16021790555060408201518160010160146101000a81548160ff0219169083151502179055505050600160068054905061175f9190611daa565b6007600061176b6118b0565b73ffffffffffffffffffffffffffffffffffffffff1673ffffffffffffffffffffffffffffffffffffffff168152602001908152602001600020819055506001600860006117b76118b0565b73ffffffffffffffffffffffffffffffffffffffff1673ffffffffffffffffffffffffffffffffffffffff16815260200190815260200160002060006101000a81548160ff0219169083151502179055505050565b600160009054906101000a900473ffffffffffffffffffffffffffffffffffffffff1681565b61183a6118b0565b73ffffffffffffffffffffffffffffffffffffffff16611858610ac4565b73ffffffffffffffffffffffffffffffffffffffff16146118ae576040517f08c379a00000000000000000000000000000000000000000000000000000000081526004016118a590612518565b60405180910390fd5b565b600033905090565b60008060009054906101000a900473ffffffffffffffffffffffffffffffffffffffff169050816000806101000a81548173ffffffffffffffffffffffffffffffffffffffff021916908373ffffffffffffffffffffffffffffffffffffffff1602179055508173ffffffffffffffffffffffffffffffffffffffff168173ffffffffffffffffffffffffffffffffffffffff167f8be0079c531659141344cd1fd0a4f28419497f9722a3daafe3b4186f6b6457e060405160405180910390a35050565b600080fd5b600073ffffffffffffffffffffffffffffffffffffffff82169050919050565b60006119ac82611981565b9050919050565b6119bc816119a1565b81146119c757600080fd5b50565b6000813590506119d9816119b3565b92915050565b6000602082840312156119f5576119f461197c565b5b6000611a03848285016119ca565b91505092915050565b6000819050919050565b611a1f81611a0c565b82525050565b6000602082019050611a3a6000830184611a16565b92915050565b60008115159050919050565b611a5581611a40565b82525050565b6000602082019050611a706000830184611a4c565b92915050565b611a7f81611a0c565b8114611a8a57600080fd5b50565b600081359050611a9c81611a76565b92915050565b60008060408385031215611ab957611ab861197c565b5b6000611ac7858286016119ca565b9250506020611ad885828601611a8d565b9150509250929050565b600060208284031215611af857611af761197c565b5b6000611b0684828501611a8d565b91505092915050565b6000819050919050565b611b2281611b0f565b82525050565b611b31816119a1565b82525050565b6000606082019050611b4c6000830186611b19565b611b596020830185611b28565b611b666040830184611a4c565b949350505050565b6000602082019050611b836000830184611b28565b92915050565b6000604082019050611b9e6000830185611b28565b611bab6020830184611a4c565b9392505050565b600060a082019050611bc76000830188611b28565b611bd46020830187611a16565b611be16040830186611a16565b611bee6060830185611a4c565b611bfb6080830184611a4c565b9695505050505050565b611c0e81611b0f565b8114611c1957600080fd5b50565b600081359050611c2b81611c05565b92915050565b600060208284031215611c4757611c4661197c565b5b6000611c5584828501611c1c565b91505092915050565b6000819050919050565b6000611c83611c7e611c7984611981565b611c5e565b611981565b9050919050565b6000611c9582611c68565b9050919050565b6000611ca782611c8a565b9050919050565b611cb781611c9c565b82525050565b6000602082019050611cd26000830184611cae565b92915050565b600082825260208201905092915050565b7f436861696e446f6e6f724875623a20496e737469747574696f6e20616c72656160008201527f6479207265676973746572656400000000000000000000000000000000000000602082015250565b6000611d45602d83611cd8565b9150611d5082611ce9565b604082019050919050565b60006020820190508181036000830152611d7481611d38565b9050919050565b7f4e487b7100000000000000000000000000000000000000000000000000000000600052601160045260246000fd5b6000611db582611a0c565b9150611dc083611a0c565b9250828203905081811115611dd857611dd7611d7b565b5b92915050565b6000611de982611a0c565b9150611df483611a0c565b9250828201905080821115611e0c57611e0b611d7b565b5b92915050565b7f4e487b7100000000000000000000000000000000000000000000000000000000600052603260045260246000fd5b7f436861696e446f6e6f724875623a20446f6e6f72206e6f74207265676973746560008201527f7265640000000000000000000000000000000000000000000000000000000000602082015250565b6000611e9d602383611cd8565b9150611ea882611e41565b604082019050919050565b60006020820190508181036000830152611ecc81611e90565b9050919050565b7f436861696e446f6e6f724875623a20446f6e6f7220616c72656164792064656c60008201527f6574656400000000000000000000000000000000000000000000000000000000602082015250565b6000611f2f602483611cd8565b9150611f3a82611ed3565b604082019050919050565b60006020820190508181036000830152611f5e81611f22565b9050919050565b7f436861696e446f6e6f724875623a2053656e646572206973206e6f742061206d60008201527f65646963616c20696e737469747574696f6e0000000000000000000000000000602082015250565b6000611fc1603283611cd8565b9150611fcc82611f65565b604082019050919050565b60006020820190508181036000830152611ff081611fb4565b9050919050565b7f436861696e446f6e6f724875623a20416d6f756e74206d75737420626520677260008201527f6561746572207468616e20300000000000000000000000000000000000000000602082015250565b6000612053602c83611cd8565b915061205e82611ff7565b604082019050919050565b6000602082019050818103600083015261208281612046565b9050919050565b7f436861696e446f6e6f724875623a2053656e646572206973206e6f742061206460008201527f6f6e6f7200000000000000000000000000000000000000000000000000000000602082015250565b60006120e5602483611cd8565b91506120f082612089565b604082019050919050565b60006020820190508181036000830152612114816120d8565b9050919050565b7f436861696e446f6e6f724875623a204e6f7420656e6f75676820617070726f7660008201527f616c730000000000000000000000000000000000000000000000000000000000602082015250565b6000612177602383611cd8565b91506121828261211b565b604082019050919050565b600060208201905081810360008301526121a68161216a565b9050919050565b7f436861696e446f6e6f724875623a20416c726561647920636c61696d65640000600082015250565b60006121e3601e83611cd8565b91506121ee826121ad565b602082019050919050565b60006020820190508181036000830152612212816121d6565b9050919050565b600060408201905061222e6000830185611b28565b61223b6020830184611a16565b9392505050565b7f436861696e446f6e6f724875623a20496e737469747574696f6e20686173206160008201527f6c726561647920617070726f766564207468697320646f6e6174696f6e000000602082015250565b600061229e603d83611cd8565b91506122a982612242565b604082019050919050565b600060208201905081810360008301526122cd81612291565b9050919050565b7f436861696e446f6e6f724875623a20446f6e6174696f6e20646f6573206e6f7460008201527f2065786973740000000000000000000000000000000000000000000000000000602082015250565b6000612330602683611cd8565b915061233b826122d4565b604082019050919050565b6000602082019050818103600083015261235f81612323565b9050919050565b600061237182611a0c565b915061237c83611a0c565b925082820261238a81611a0c565b915082820484148315176123a1576123a0611d7b565b5b5092915050565b7f4f776e61626c653a206e6577206f776e657220697320746865207a65726f206160008201527f6464726573730000000000000000000000000000000000000000000000000000602082015250565b6000612404602683611cd8565b915061240f826123a8565b604082019050919050565b60006020820190508181036000830152612433816123f7565b9050919050565b7f436861696e446f6e6f724875623a20446f6e6f7220616c72656164792072656760008201527f6973746572656400000000000000000000000000000000000000000000000000602082015250565b6000612496602783611cd8565b91506124a18261243a565b604082019050919050565b600060208201905081810360008301526124c581612489565b9050919050565b7f4f776e61626c653a2063616c6c6572206973206e6f7420746865206f776e6572600082015250565b6000612502602083611cd8565b915061250d826124cc565b602082019050919050565b60006020820190508181036000830152612531816124f5565b905091905056fea26469706673582212205ab795e887d53fd7f8724aa1be0845fbbe170bb5a0baa8271c6f5560b22fd61864736f6c63430008130033",
  "linkReferences": {},
  "deployedLinkReferences": {}
}