{
  "_format": "hh-sol-artifact-1",
  "contractName": "ChainDonorHub",
  "sourceName": "contracts/ChainDonorHub.sol",
  "abi": [
    {
      "inputs": [
        {
          "internalType": "address",
          "name": "_tokenAddress",
          "type": "address"
        }
      ],
      "stateMutability": "nonpayable",
      "type": "constructor"
    },
    {
      "anonymous": false,
      "inputs": [
        {
          "indexed": true,
          "internalType": "address",
          "name": "institution",
          "type": "address"
        },
        {
          "indexed": true,
          "internalType": "address",
          "name": "donor",
          "type": "address"
        },
        {
          "indexed": false,
          "internalType": "uint256",
          "name": "index",
          "type": "uint256"
        }
      ],
      "name": "DonationApproved",
      "type": "event"
    },
    {
      "anonymous": false,
      "inputs": [
        {
          "indexed": true,
          "internalType": "address",
          "name": "donor",
          "type": "address"
        },
        {
          "indexed": false,
          "internalType": "uint256",
          "name": "amount",
          "type": "uint256"
        }
      ],
      "name": "DonationClaimed",
      "type": "event"
    },
    {
      "anonymous": false,
      "inputs": [
        {
          "indexed": true,
          "internalType": "address",
          "name": "donor",
          "type": "address"
        },
        {
          "indexed": false,
          "internalType": "uint256",
          "name": "amount",
          "type": "uint256"
        }
      ],
      "name": "DonationCreated",
      "type": "event"
    },
    {
      "anonymous": false,
      "inputs": [
        {
          "indexed": false,
          "internalType": "address",
          "name": "institution",
          "type": "address"
        }
      ],
      "name": "InstitutionAdded",
      "type": "event"
    },
    {
      "anonymous": false,
      "inputs": [
        {
          "indexed": false,
          "internalType": "address",
          "name": "institution",
          "type": "address"
        }
      ],
      "name": "InstitutionRemoved",
      "type": "event"
    },
    {
      "anonymous": false,
      "inputs": [
        {
          "indexed": true,
          "internalType": "address",
          "name": "previousOwner",
          "type": "address"
        },
        {
          "indexed": true,
          "internalType": "address",
          "name": "newOwner",
          "type": "address"
        }
      ],
      "name": "OwnershipTransferred",
      "type": "event"
    },
    {
      "inputs": [
        {
          "internalType": "address",
          "name": "_institution",
          "type": "address"
        }
      ],
      "name": "addMedicalInstitution",
      "outputs": [],
      "stateMutability": "nonpayable",
      "type": "function"
    },
    {
      "inputs": [
        {
          "internalType": "address",
          "name": "_donor",
          "type": "address"
        },
        {
          "internalType": "uint256",
          "name": "_index",
          "type": "uint256"
        }
      ],
      "name": "approveDonation",
      "outputs": [],
      "stateMutability": "nonpayable",
      "type": "function"
    },
    {
      "inputs": [
        {
          "internalType": "uint256",
          "name": "_index",
          "type": "uint256"
        }
      ],
      "name": "claimReward",
      "outputs": [],
      "stateMutability": "nonpayable",
      "type": "function"
    },
    {
      "inputs": [
        {
          "internalType": "address",
          "name": "_donor",
          "type": "address"
        },
        {
          "internalType": "uint256",
          "name": "_amount",
          "type": "uint256"
        }
      ],
      "name": "createDonation",
      "outputs": [],
      "stateMutability": "nonpayable",
      "type": "function"
    },
    {
      "inputs": [
        {
          "internalType": "address",
          "name": "",
          "type": "address"
        },
        {
          "internalType": "uint256",
          "name": "",
          "type": "uint256"
        }
      ],
      "name": "donorDonations",
      "outputs": [
        {
          "internalType": "uint256",
          "name": "amount",
          "type": "uint256"
        },
        {
          "internalType": "uint256",
          "name": "approvals",
          "type": "uint256"
        },
        {
          "internalType": "bool",
          "name": "claimed",
          "type": "bool"
        }
      ],
      "stateMutability": "view",
      "type": "function"
    },
    {
      "inputs": [
        {
          "internalType": "address",
          "name": "",
          "type": "address"
        }
      ],
      "name": "donorPersonalInfo",
      "outputs": [
        {
          "internalType": "bytes32",
          "name": "",
          "type": "bytes32"
        }
      ],
      "stateMutability": "view",
      "type": "function"
    },
    {
      "inputs": [
        {
          "internalType": "address",
          "name": "",
          "type": "address"
        }
      ],
      "name": "donors",
      "outputs": [
        {
          "internalType": "bool",
          "name": "",
          "type": "bool"
        }
      ],
      "stateMutability": "view",
      "type": "function"
    },
    {
      "inputs": [
        {
          "internalType": "address",
          "name": "",
          "type": "address"
        }
      ],
      "name": "medicalInstitutions",
      "outputs": [
        {
          "internalType": "bool",
          "name": "",
          "type": "bool"
        }
      ],
      "stateMutability": "view",
      "type": "function"
    },
    {
      "inputs": [],
      "name": "owner",
      "outputs": [
        {
          "internalType": "address",
          "name": "",
          "type": "address"
        }
      ],
      "stateMutability": "view",
      "type": "function"
    },
    {
      "inputs": [
        {
          "internalType": "bytes32",
          "name": "_hashPersonalInfo",
          "type": "bytes32"
        }
      ],
      "name": "registerDonor",
      "outputs": [],
      "stateMutability": "nonpayable",
      "type": "function"
    },
    {
      "inputs": [],
      "name": "removeDonor",
      "outputs": [],
      "stateMutability": "nonpayable",
      "type": "function"
    },
    {
      "inputs": [
        {
          "internalType": "address",
          "name": "_institution",
          "type": "address"
        }
      ],
      "name": "removeMedicalInstitution",
      "outputs": [],
      "stateMutability": "nonpayable",
      "type": "function"
    },
    {
      "inputs": [],
      "name": "renounceOwnership",
      "outputs": [],
      "stateMutability": "nonpayable",
      "type": "function"
    },
    {
      "inputs": [],
      "name": "token",
      "outputs": [
        {
          "internalType": "contract BloodToken",
          "name": "",
          "type": "address"
        }
      ],
      "stateMutability": "view",
      "type": "function"
    },
    {
      "inputs": [],
      "name": "totalInstitutions",
      "outputs": [
        {
          "internalType": "uint256",
          "name": "",
          "type": "uint256"
        }
      ],
      "stateMutability": "view",
      "type": "function"
    },
    {
      "inputs": [
        {
          "internalType": "address",
          "name": "newOwner",
          "type": "address"
        }
      ],
      "name": "transferOwnership",
      "outputs": [],
      "stateMutability": "nonpayable",
      "type": "function"
    }
  ],
  "bytecode": "0x608060405260006006553480156200001657600080fd5b50604051620020803803806200208083398181016040528101906200003c9190620001da565b6200005c62000050620000a460201b60201c565b620000ac60201b60201c565b80600160006101000a81548173ffffffffffffffffffffffffffffffffffffffff021916908373ffffffffffffffffffffffffffffffffffffffff160217905550506200020c565b600033905090565b60008060009054906101000a900473ffffffffffffffffffffffffffffffffffffffff169050816000806101000a81548173ffffffffffffffffffffffffffffffffffffffff021916908373ffffffffffffffffffffffffffffffffffffffff1602179055508173ffffffffffffffffffffffffffffffffffffffff168173ffffffffffffffffffffffffffffffffffffffff167f8be0079c531659141344cd1fd0a4f28419497f9722a3daafe3b4186f6b6457e060405160405180910390a35050565b600080fd5b600073ffffffffffffffffffffffffffffffffffffffff82169050919050565b6000620001a28262000175565b9050919050565b620001b48162000195565b8114620001c057600080fd5b50565b600081519050620001d481620001a9565b92915050565b600060208284031215620001f357620001f262000170565b5b60006200020384828501620001c3565b91505092915050565b611e64806200021c6000396000f3fe608060405234801561001057600080fd5b50600436106101005760003560e01c80638da5cb5b11610097578063ca0cdea811610066578063ca0cdea814610273578063f2fde38b146102a3578063f92b1d19146102bf578063fc0c546a146102db57610100565b80638da5cb5b146101ff578063acce223c1461021d578063ae169a5014610239578063c54f7d211461025557610100565b80634395e1bf116100d35780634395e1bf1461018b5780634b14eee7146101bd578063715018a6146101d9578063803111c9146101e357610100565b806307701f8f146101055780631bd07115146101355780632c9e49e8146101515780633d4d4ef214610181575b600080fd5b61011f600480360381019061011a919061145a565b6102f9565b60405161012c91906114a0565b60405180910390f35b61014f600480360381019061014a919061145a565b610311565b005b61016b6004803603810190610166919061145a565b6103c5565b60405161017891906114d6565b60405180910390f35b6101896103e5565b005b6101a560048036038101906101a09190611527565b61052c565b6040516101b493929190611576565b60405180910390f35b6101d760048036038101906101d2919061145a565b610580565b005b6101e1610634565b005b6101fd60048036038101906101f89190611527565b610648565b005b610207610a00565b60405161021491906115bc565b60405180910390f35b61023760048036038101906102329190611527565b610a29565b005b610253600480360381019061024e91906115d7565b610cae565b005b61025d611097565b60405161026a9190611604565b60405180910390f35b61028d6004803603810190610288919061145a565b61109d565b60405161029a91906114d6565b60405180910390f35b6102bd60048036038101906102b8919061145a565b6110bd565b005b6102d960048036038101906102d4919061164b565b611140565b005b6102e3611287565b6040516102f091906116d7565b60405180910390f35b60056020528060005260406000206000915090505481565b6103196112ad565b6001600260008373ffffffffffffffffffffffffffffffffffffffff1673ffffffffffffffffffffffffffffffffffffffff16815260200190815260200160002060006101000a81548160ff0219169083151502179055506001600660008282546103849190611721565b925050819055507f0bfb62b1fbb00013554ed3ff21ca179a519aee08ccf015aed3482362436b6b35816040516103ba91906115bc565b60405180910390a150565b60026020528060005260406000206000915054906101000a900460ff1681565b60011515600360006103f561132b565b73ffffffffffffffffffffffffffffffffffffffff1673ffffffffffffffffffffffffffffffffffffffff16815260200190815260200160002060009054906101000a900460ff1615151461047f576040517f08c379a0000000000000000000000000000000000000000000000000000000008152600401610476906117d8565b60405180910390fd5b60006003600061048d61132b565b73ffffffffffffffffffffffffffffffffffffffff1673ffffffffffffffffffffffffffffffffffffffff16815260200190815260200160002060006101000a81548160ff0219169083151502179055506000600560006104ec61132b565b73ffffffffffffffffffffffffffffffffffffffff1673ffffffffffffffffffffffffffffffffffffffff16815260200190815260200160002081905550565b6004602052816000526040600020818154811061054857600080fd5b9060005260206000209060030201600091509150508060000154908060010154908060020160009054906101000a900460ff16905083565b6105886112ad565b6000600260008373ffffffffffffffffffffffffffffffffffffffff1673ffffffffffffffffffffffffffffffffffffffff16815260200190815260200160002060006101000a81548160ff0219169083151502179055506001600660008282546105f391906117f8565b925050819055507f1b0b878d06167e60e076b932df41de2b519d804c80445961e705ffbc98091f878160405161062991906115bc565b60405180910390a150565b61063c6112ad565b6106466000611333565b565b600115156002600061065861132b565b73ffffffffffffffffffffffffffffffffffffffff1673ffffffffffffffffffffffffffffffffffffffff16815260200190815260200160002060009054906101000a900460ff161515146106e2576040517f08c379a00000000000000000000000000000000000000000000000000000000081526004016106d99061189e565b60405180910390fd5b600760008373ffffffffffffffffffffffffffffffffffffffff1673ffffffffffffffffffffffffffffffffffffffff1681526020019081526020016000206000828152602001908152602001600020600061073c61132b565b73ffffffffffffffffffffffffffffffffffffffff1673ffffffffffffffffffffffffffffffffffffffff16815260200190815260200160002060009054906101000a900460ff16156107c4576040517f08c379a00000000000000000000000000000000000000000000000000000000081526004016107bb90611930565b60405180910390fd5b6000600460008473ffffffffffffffffffffffffffffffffffffffff1673ffffffffffffffffffffffffffffffffffffffff168152602001908152602001600020828154811061081757610816611950565b5b90600052602060002090600302016000015411610869576040517f08c379a0000000000000000000000000000000000000000000000000000000008152600401610860906119f1565b60405180910390fd5b6001600460008473ffffffffffffffffffffffffffffffffffffffff1673ffffffffffffffffffffffffffffffffffffffff16815260200190815260200160002082815481106108bc576108bb611950565b5b906000526020600020906003020160010160008282546108dc9190611721565b925050819055506001600760008473ffffffffffffffffffffffffffffffffffffffff1673ffffffffffffffffffffffffffffffffffffffff1681526020019081526020016000206000838152602001908152602001600020600061093f61132b565b73ffffffffffffffffffffffffffffffffffffffff1673ffffffffffffffffffffffffffffffffffffffff16815260200190815260200160002060006101000a81548160ff0219169083151502179055508173ffffffffffffffffffffffffffffffffffffffff166109af61132b565b73ffffffffffffffffffffffffffffffffffffffff167f57bb83c14f9d3f349bd0d5d662e957c987a4854456300b818e76c7978ea2e5b8836040516109f49190611604565b60405180910390a35050565b60008060009054906101000a900473ffffffffffffffffffffffffffffffffffffffff16905090565b6001151560026000610a3961132b565b73ffffffffffffffffffffffffffffffffffffffff1673ffffffffffffffffffffffffffffffffffffffff16815260200190815260200160002060009054906101000a900460ff16151514610ac3576040517f08c379a0000000000000000000000000000000000000000000000000000000008152600401610aba9061189e565b60405180910390fd5b60011515600360008473ffffffffffffffffffffffffffffffffffffffff1673ffffffffffffffffffffffffffffffffffffffff16815260200190815260200160002060009054906101000a900460ff16151514610b56576040517f08c379a0000000000000000000000000000000000000000000000000000000008152600401610b4d906117d8565b60405180910390fd5b60008111610b99576040517f08c379a0000000000000000000000000000000000000000000000000000000008152600401610b9090611a83565b60405180910390fd5b6000604051806060016040528083815260200160008152602001600015158152509050600460008473ffffffffffffffffffffffffffffffffffffffff1673ffffffffffffffffffffffffffffffffffffffff168152602001908152602001600020819080600181540180825580915050600190039060005260206000209060030201600090919091909150600082015181600001556020820151816001015560408201518160020160006101000a81548160ff02191690831515021790555050508273ffffffffffffffffffffffffffffffffffffffff167fcbf2f8dcc2e57120df4e64e31e8bcb10fffef66c2a8f7e39ceb4061bb72c388583604051610ca19190611604565b60405180910390a2505050565b6001151560036000610cbe61132b565b73ffffffffffffffffffffffffffffffffffffffff1673ffffffffffffffffffffffffffffffffffffffff16815260200190815260200160002060009054906101000a900460ff16151514610d48576040517f08c379a0000000000000000000000000000000000000000000000000000000008152600401610d3f90611b15565b60405180910390fd5b600654600260046000610d5961132b565b73ffffffffffffffffffffffffffffffffffffffff1673ffffffffffffffffffffffffffffffffffffffff1681526020019081526020016000208381548110610da557610da4611950565b5b906000526020600020906003020160010154610dc19190611b35565b11610e01576040517f08c379a0000000000000000000000000000000000000000000000000000000008152600401610df890611be9565b60405180910390fd5b60046000610e0d61132b565b73ffffffffffffffffffffffffffffffffffffffff1673ffffffffffffffffffffffffffffffffffffffff1681526020019081526020016000208181548110610e5957610e58611950565b5b906000526020600020906003020160020160009054906101000a900460ff1615610eb8576040517f08c379a0000000000000000000000000000000000000000000000000000000008152600401610eaf90611c55565b60405180910390fd5b600060046000610ec661132b565b73ffffffffffffffffffffffffffffffffffffffff1673ffffffffffffffffffffffffffffffffffffffff1681526020019081526020016000208281548110610f1257610f11611950565b5b9060005260206000209060030201600001549050600160009054906101000a900473ffffffffffffffffffffffffffffffffffffffff1673ffffffffffffffffffffffffffffffffffffffff166340c10f19610f6c61132b565b836040518363ffffffff1660e01b8152600401610f8a929190611c75565b600060405180830381600087803b158015610fa457600080fd5b505af1158015610fb8573d6000803e3d6000fd5b50505050600160046000610fca61132b565b73ffffffffffffffffffffffffffffffffffffffff1673ffffffffffffffffffffffffffffffffffffffff168152602001908152602001600020838154811061101657611015611950565b5b906000526020600020906003020160020160006101000a81548160ff02191690831515021790555061104661132b565b73ffffffffffffffffffffffffffffffffffffffff167fcea3075acde4774a33609cbbcdc18b7f2e492e6c21502369ccb7d7dbac607c348260405161108b9190611604565b60405180910390a25050565b60065481565b60036020528060005260406000206000915054906101000a900460ff1681565b6110c56112ad565b600073ffffffffffffffffffffffffffffffffffffffff168173ffffffffffffffffffffffffffffffffffffffff1603611134576040517f08c379a000000000000000000000000000000000000000000000000000000000815260040161112b90611d10565b60405180910390fd5b61113d81611333565b50565b600015156003600061115061132b565b73ffffffffffffffffffffffffffffffffffffffff1673ffffffffffffffffffffffffffffffffffffffff16815260200190815260200160002060009054906101000a900460ff161515146111da576040517f08c379a00000000000000000000000000000000000000000000000000000000081526004016111d190611da2565b60405180910390fd5b6001600360006111e861132b565b73ffffffffffffffffffffffffffffffffffffffff1673ffffffffffffffffffffffffffffffffffffffff16815260200190815260200160002060006101000a81548160ff021916908315150217905550806005600061124661132b565b73ffffffffffffffffffffffffffffffffffffffff1673ffffffffffffffffffffffffffffffffffffffff1681526020019081526020016000208190555050565b600160009054906101000a900473ffffffffffffffffffffffffffffffffffffffff1681565b6112b561132b565b73ffffffffffffffffffffffffffffffffffffffff166112d3610a00565b73ffffffffffffffffffffffffffffffffffffffff1614611329576040517f08c379a000000000000000000000000000000000000000000000000000000000815260040161132090611e0e565b60405180910390fd5b565b600033905090565b60008060009054906101000a900473ffffffffffffffffffffffffffffffffffffffff169050816000806101000a81548173ffffffffffffffffffffffffffffffffffffffff021916908373ffffffffffffffffffffffffffffffffffffffff1602179055508173ffffffffffffffffffffffffffffffffffffffff168173ffffffffffffffffffffffffffffffffffffffff167f8be0079c531659141344cd1fd0a4f28419497f9722a3daafe3b4186f6b6457e060405160405180910390a35050565b600080fd5b600073ffffffffffffffffffffffffffffffffffffffff82169050919050565b6000611427826113fc565b9050919050565b6114378161141c565b811461144257600080fd5b50565b6000813590506114548161142e565b92915050565b6000602082840312156114705761146f6113f7565b5b600061147e84828501611445565b91505092915050565b6000819050919050565b61149a81611487565b82525050565b60006020820190506114b56000830184611491565b92915050565b60008115159050919050565b6114d0816114bb565b82525050565b60006020820190506114eb60008301846114c7565b92915050565b6000819050919050565b611504816114f1565b811461150f57600080fd5b50565b600081359050611521816114fb565b92915050565b6000806040838503121561153e5761153d6113f7565b5b600061154c85828601611445565b925050602061155d85828601611512565b9150509250929050565b611570816114f1565b82525050565b600060608201905061158b6000830186611567565b6115986020830185611567565b6115a560408301846114c7565b949350505050565b6115b68161141c565b82525050565b60006020820190506115d160008301846115ad565b92915050565b6000602082840312156115ed576115ec6113f7565b5b60006115fb84828501611512565b91505092915050565b60006020820190506116196000830184611567565b92915050565b61162881611487565b811461163357600080fd5b50565b6000813590506116458161161f565b92915050565b600060208284031215611661576116606113f7565b5b600061166f84828501611636565b91505092915050565b6000819050919050565b600061169d611698611693846113fc565b611678565b6113fc565b9050919050565b60006116af82611682565b9050919050565b60006116c1826116a4565b9050919050565b6116d1816116b6565b82525050565b60006020820190506116ec60008301846116c8565b92915050565b7f4e487b7100000000000000000000000000000000000000000000000000000000600052601160045260246000fd5b600061172c826114f1565b9150611737836114f1565b925082820190508082111561174f5761174e6116f2565b5b92915050565b600082825260208201905092915050565b7f436861696e446f6e6f724875623a20446f6e6f72206e6f74207265676973746560008201527f7265640000000000000000000000000000000000000000000000000000000000602082015250565b60006117c2602383611755565b91506117cd82611766565b604082019050919050565b600060208201905081810360008301526117f1816117b5565b9050919050565b6000611803826114f1565b915061180e836114f1565b9250828203905081811115611826576118256116f2565b5b92915050565b7f436861696e446f6e6f724875623a2053656e646572206973206e6f742061206d60008201527f65646963616c20696e737469747574696f6e0000000000000000000000000000602082015250565b6000611888603283611755565b91506118938261182c565b604082019050919050565b600060208201905081810360008301526118b78161187b565b9050919050565b7f436861696e446f6e6f724875623a20496e737469747574696f6e20686173206160008201527f6c726561647920617070726f766564207468697320646f6e6174696f6e000000602082015250565b600061191a603d83611755565b9150611925826118be565b604082019050919050565b600060208201905081810360008301526119498161190d565b9050919050565b7f4e487b7100000000000000000000000000000000000000000000000000000000600052603260045260246000fd5b7f436861696e446f6e6f724875623a20446f6e6174696f6e20646f6573206e6f7460008201527f2065786973740000000000000000000000000000000000000000000000000000602082015250565b60006119db602683611755565b91506119e68261197f565b604082019050919050565b60006020820190508181036000830152611a0a816119ce565b9050919050565b7f436861696e446f6e6f724875623a20416d6f756e74206d75737420626520677260008201527f6561746572207468616e20300000000000000000000000000000000000000000602082015250565b6000611a6d602c83611755565b9150611a7882611a11565b604082019050919050565b60006020820190508181036000830152611a9c81611a60565b9050919050565b7f436861696e446f6e6f724875623a2053656e646572206973206e6f742061206460008201527f6f6e6f7200000000000000000000000000000000000000000000000000000000602082015250565b6000611aff602483611755565b9150611b0a82611aa3565b604082019050919050565b60006020820190508181036000830152611b2e81611af2565b9050919050565b6000611b40826114f1565b9150611b4b836114f1565b9250828202611b59816114f1565b91508282048414831517611b7057611b6f6116f2565b5b5092915050565b7f436861696e446f6e6f724875623a204e6f7420656e6f75676820617070726f7660008201527f616c730000000000000000000000000000000000000000000000000000000000602082015250565b6000611bd3602383611755565b9150611bde82611b77565b604082019050919050565b60006020820190508181036000830152611c0281611bc6565b9050919050565b7f436861696e446f6e6f724875623a20416c726561647920636c61696d65640000600082015250565b6000611c3f601e83611755565b9150611c4a82611c09565b602082019050919050565b60006020820190508181036000830152611c6e81611c32565b9050919050565b6000604082019050611c8a60008301856115ad565b611c976020830184611567565b9392505050565b7f4f776e61626c653a206e6577206f776e657220697320746865207a65726f206160008201527f6464726573730000000000000000000000000000000000000000000000000000602082015250565b6000611cfa602683611755565b9150611d0582611c9e565b604082019050919050565b60006020820190508181036000830152611d2981611ced565b9050919050565b7f436861696e446f6e6f724875623a20446f6e6f7220616c72656164792072656760008201527f6973746572656400000000000000000000000000000000000000000000000000602082015250565b6000611d8c602783611755565b9150611d9782611d30565b604082019050919050565b60006020820190508181036000830152611dbb81611d7f565b9050919050565b7f4f776e61626c653a2063616c6c6572206973206e6f7420746865206f776e6572600082015250565b6000611df8602083611755565b9150611e0382611dc2565b602082019050919050565b60006020820190508181036000830152611e2781611deb565b905091905056fea264697066735822122050b7cd0f5af9439c7b671aef5cadf8d0309e4ebdde12acf143a2652d8bb0349964736f6c63430008130033",
  "linkReferences": {},
  "deployedLinkReferences": {}
}