{
  "_format": "hh-sol-artifact-1",
  "contractName": "ChainDonorHub",
  "sourceName": "contracts/ChainDonorHub.sol",
  "abi": [
    {
      "inputs": [
        {
          "internalType": "address",
          "name": "_tokenAddress",
          "type": "address"
        }
      ],
      "stateMutability": "nonpayable",
      "type": "constructor"
    },
    {
      "anonymous": false,
      "inputs": [
        {
          "indexed": true,
          "internalType": "address",
          "name": "institution",
          "type": "address"
        },
        {
          "indexed": true,
          "internalType": "address",
          "name": "donor",
          "type": "address"
        },
        {
          "indexed": false,
          "internalType": "uint256",
          "name": "index",
          "type": "uint256"
        }
      ],
      "name": "DonationApproved",
      "type": "event"
    },
    {
      "anonymous": false,
      "inputs": [
        {
          "indexed": true,
          "internalType": "address",
          "name": "donor",
          "type": "address"
        },
        {
          "indexed": false,
          "internalType": "uint256",
          "name": "amount",
          "type": "uint256"
        }
      ],
      "name": "DonationClaimed",
      "type": "event"
    },
    {
      "anonymous": false,
      "inputs": [
        {
          "indexed": true,
          "internalType": "address",
          "name": "donor",
          "type": "address"
        },
        {
          "indexed": false,
          "internalType": "uint256",
          "name": "amount",
          "type": "uint256"
        }
      ],
      "name": "DonationCreated",
      "type": "event"
    },
    {
      "anonymous": false,
      "inputs": [
        {
          "indexed": false,
          "internalType": "address",
          "name": "institution",
          "type": "address"
        }
      ],
      "name": "InstitutionAdded",
      "type": "event"
    },
    {
      "anonymous": false,
      "inputs": [
        {
          "indexed": false,
          "internalType": "address",
          "name": "institution",
          "type": "address"
        }
      ],
      "name": "InstitutionRemoved",
      "type": "event"
    },
    {
      "anonymous": false,
      "inputs": [
        {
          "indexed": true,
          "internalType": "address",
          "name": "previousOwner",
          "type": "address"
        },
        {
          "indexed": true,
          "internalType": "address",
          "name": "newOwner",
          "type": "address"
        }
      ],
      "name": "OwnershipTransferred",
      "type": "event"
    },
    {
      "inputs": [
        {
          "internalType": "address",
          "name": "_institution",
          "type": "address"
        }
      ],
      "name": "addMedicalInstitution",
      "outputs": [],
      "stateMutability": "nonpayable",
      "type": "function"
    },
    {
      "inputs": [
        {
          "internalType": "address",
          "name": "_donor",
          "type": "address"
        },
        {
          "internalType": "uint256",
          "name": "_index",
          "type": "uint256"
        }
      ],
      "name": "approveDonation",
      "outputs": [],
      "stateMutability": "nonpayable",
      "type": "function"
    },
    {
      "inputs": [
        {
          "internalType": "uint256",
          "name": "_index",
          "type": "uint256"
        }
      ],
      "name": "claimReward",
      "outputs": [],
      "stateMutability": "nonpayable",
      "type": "function"
    },
    {
      "inputs": [
        {
          "internalType": "address",
          "name": "_donor",
          "type": "address"
        },
        {
          "internalType": "uint256",
          "name": "_amount",
          "type": "uint256"
        }
      ],
      "name": "createDonation",
      "outputs": [],
      "stateMutability": "nonpayable",
      "type": "function"
    },
    {
      "inputs": [
        {
          "internalType": "address",
          "name": "",
          "type": "address"
        },
        {
          "internalType": "uint256",
          "name": "",
          "type": "uint256"
        }
      ],
      "name": "donorDonations",
      "outputs": [
        {
          "internalType": "uint256",
          "name": "amount",
          "type": "uint256"
        },
        {
          "internalType": "uint256",
          "name": "approvals",
          "type": "uint256"
        },
        {
          "internalType": "bool",
          "name": "claimed",
          "type": "bool"
        }
      ],
      "stateMutability": "view",
      "type": "function"
    },
    {
      "inputs": [
        {
          "internalType": "uint256",
          "name": "",
          "type": "uint256"
        }
      ],
      "name": "donors",
      "outputs": [
        {
          "internalType": "bytes32",
          "name": "hashPersonalInfo",
          "type": "bytes32"
        },
        {
          "internalType": "address",
          "name": "wallet",
          "type": "address"
        },
        {
          "internalType": "bool",
          "name": "isDeleted",
          "type": "bool"
        }
      ],
      "stateMutability": "view",
      "type": "function"
    },
    {
      "inputs": [],
      "name": "getDonorCount",
      "outputs": [
        {
          "internalType": "uint256",
          "name": "",
          "type": "uint256"
        }
      ],
      "stateMutability": "view",
      "type": "function"
    },
    {
      "inputs": [
        {
          "internalType": "address",
          "name": "",
          "type": "address"
        }
      ],
      "name": "isDonor",
      "outputs": [
        {
          "internalType": "bool",
          "name": "",
          "type": "bool"
        }
      ],
      "stateMutability": "view",
      "type": "function"
    },
    {
      "inputs": [
        {
          "internalType": "address",
          "name": "",
          "type": "address"
        }
      ],
      "name": "medicalInstitutions",
      "outputs": [
        {
          "internalType": "bool",
          "name": "",
          "type": "bool"
        }
      ],
      "stateMutability": "view",
      "type": "function"
    },
    {
      "inputs": [],
      "name": "owner",
      "outputs": [
        {
          "internalType": "address",
          "name": "",
          "type": "address"
        }
      ],
      "stateMutability": "view",
      "type": "function"
    },
    {
      "inputs": [
        {
          "internalType": "bytes32",
          "name": "_hashPersonalInfo",
          "type": "bytes32"
        }
      ],
      "name": "registerDonor",
      "outputs": [],
      "stateMutability": "nonpayable",
      "type": "function"
    },
    {
      "inputs": [],
      "name": "removeDonor",
      "outputs": [],
      "stateMutability": "nonpayable",
      "type": "function"
    },
    {
      "inputs": [
        {
          "internalType": "address",
          "name": "_institution",
          "type": "address"
        }
      ],
      "name": "removeMedicalInstitution",
      "outputs": [],
      "stateMutability": "nonpayable",
      "type": "function"
    },
    {
      "inputs": [],
      "name": "renounceOwnership",
      "outputs": [],
      "stateMutability": "nonpayable",
      "type": "function"
    },
    {
      "inputs": [],
      "name": "token",
      "outputs": [
        {
          "internalType": "contract BloodToken",
          "name": "",
          "type": "address"
        }
      ],
      "stateMutability": "view",
      "type": "function"
    },
    {
      "inputs": [],
      "name": "totalInstitutions",
      "outputs": [
        {
          "internalType": "uint256",
          "name": "",
          "type": "uint256"
        }
      ],
      "stateMutability": "view",
      "type": "function"
    },
    {
      "inputs": [
        {
          "internalType": "address",
          "name": "newOwner",
          "type": "address"
        }
      ],
      "name": "transferOwnership",
      "outputs": [],
      "stateMutability": "nonpayable",
      "type": "function"
    }
  ],
  "bytecode": "0x608060405260006007553480156200001657600080fd5b50604051620024563803806200245683398181016040528101906200003c9190620001da565b6200005c62000050620000a460201b60201c565b620000ac60201b60201c565b80600160006101000a81548173ffffffffffffffffffffffffffffffffffffffff021916908373ffffffffffffffffffffffffffffffffffffffff160217905550506200020c565b600033905090565b60008060009054906101000a900473ffffffffffffffffffffffffffffffffffffffff169050816000806101000a81548173ffffffffffffffffffffffffffffffffffffffff021916908373ffffffffffffffffffffffffffffffffffffffff1602179055508173ffffffffffffffffffffffffffffffffffffffff168173ffffffffffffffffffffffffffffffffffffffff167f8be0079c531659141344cd1fd0a4f28419497f9722a3daafe3b4186f6b6457e060405160405180910390a35050565b600080fd5b600073ffffffffffffffffffffffffffffffffffffffff82169050919050565b6000620001a28262000175565b9050919050565b620001b48162000195565b8114620001c057600080fd5b50565b600081519050620001d481620001a9565b92915050565b600060208284031215620001f357620001f262000170565b5b60006200020384828501620001c3565b91505092915050565b61223a806200021c6000396000f3fe608060405234801561001057600080fd5b506004361061010b5760003560e01c8063715018a6116100a2578063ae169a5011610071578063ae169a5014610294578063c54f7d21146102b0578063f2fde38b146102ce578063f92b1d19146102ea578063fc0c546a146103065761010b565b8063715018a614610234578063803111c91461023e5780638da5cb5b1461025a578063acce223c146102785761010b565b80634395e1bf116100de5780634395e1bf146101965780634abfa163146101c85780634b14eee7146101fa57806369bc2f1e146102165761010b565b80631bd07115146101105780632bc3d7aa1461012c5780632c9e49e81461015c5780633d4d4ef21461018c575b600080fd5b61012a60048036038101906101259190611782565b610324565b005b61014660048036038101906101419190611782565b6103d8565b60405161015391906117ca565b60405180910390f35b61017660048036038101906101719190611782565b6103f8565b60405161018391906117ca565b60405180910390f35b610194610418565b005b6101b060048036038101906101ab919061181b565b6106b6565b6040516101bf9392919061186a565b60405180910390f35b6101e260048036038101906101dd91906118a1565b61070a565b6040516101f1939291906118f6565b60405180910390f35b610214600480360381019061020f9190611782565b610771565b005b61021e610825565b60405161022b919061192d565b60405180910390f35b61023c610832565b005b6102586004803603810190610253919061181b565b610846565b005b610262610bfe565b60405161026f9190611948565b60405180910390f35b610292600480360381019061028d919061181b565b610c27565b005b6102ae60048036038101906102a991906118a1565b610f0c565b005b6102b86112f5565b6040516102c5919061192d565b60405180910390f35b6102e860048036038101906102e39190611782565b6112fb565b005b61030460048036038101906102ff919061198f565b61137e565b005b61030e6115af565b60405161031b9190611a1b565b60405180910390f35b61032c6115d5565b6001600260008373ffffffffffffffffffffffffffffffffffffffff1673ffffffffffffffffffffffffffffffffffffffff16815260200190815260200160002060006101000a81548160ff0219169083151502179055506001600760008282546103979190611a65565b925050819055507f0bfb62b1fbb00013554ed3ff21ca179a519aee08ccf015aed3482362436b6b35816040516103cd9190611948565b60405180910390a150565b60066020528060005260406000206000915054906101000a900460ff1681565b60026020528060005260406000206000915054906101000a900460ff1681565b600073ffffffffffffffffffffffffffffffffffffffff1660046005600061043e611653565b73ffffffffffffffffffffffffffffffffffffffff1673ffffffffffffffffffffffffffffffffffffffff168152602001908152602001600020548154811061048a57610489611a99565b5b906000526020600020906002020160010160009054906101000a900473ffffffffffffffffffffffffffffffffffffffff1673ffffffffffffffffffffffffffffffffffffffff1603610512576040517f08c379a000000000000000000000000000000000000000000000000000000000815260040161050990611b4b565b60405180910390fd5b60001515600460056000610524611653565b73ffffffffffffffffffffffffffffffffffffffff1673ffffffffffffffffffffffffffffffffffffffff16815260200190815260200160002054815481106105705761056f611a99565b5b906000526020600020906002020160010160149054906101000a900460ff161515146105d1576040517f08c379a00000000000000000000000000000000000000000000000000000000081526004016105c890611bdd565b60405180910390fd5b60016004600560006105e1611653565b73ffffffffffffffffffffffffffffffffffffffff1673ffffffffffffffffffffffffffffffffffffffff168152602001908152602001600020548154811061062d5761062c611a99565b5b906000526020600020906002020160010160146101000a81548160ff021916908315150217905550600060066000610663611653565b73ffffffffffffffffffffffffffffffffffffffff1673ffffffffffffffffffffffffffffffffffffffff16815260200190815260200160002060006101000a81548160ff021916908315150217905550565b600360205281600052604060002081815481106106d257600080fd5b9060005260206000209060030201600091509150508060000154908060010154908060020160009054906101000a900460ff16905083565b6004818154811061071a57600080fd5b90600052602060002090600202016000915090508060000154908060010160009054906101000a900473ffffffffffffffffffffffffffffffffffffffff16908060010160149054906101000a900460ff16905083565b6107796115d5565b6000600260008373ffffffffffffffffffffffffffffffffffffffff1673ffffffffffffffffffffffffffffffffffffffff16815260200190815260200160002060006101000a81548160ff0219169083151502179055506001600760008282546107e49190611bfd565b925050819055507f1b0b878d06167e60e076b932df41de2b519d804c80445961e705ffbc98091f878160405161081a9190611948565b60405180910390a150565b6000600480549050905090565b61083a6115d5565b610844600061165b565b565b6001151560026000610856611653565b73ffffffffffffffffffffffffffffffffffffffff1673ffffffffffffffffffffffffffffffffffffffff16815260200190815260200160002060009054906101000a900460ff161515146108e0576040517f08c379a00000000000000000000000000000000000000000000000000000000081526004016108d790611ca3565b60405180910390fd5b600860008373ffffffffffffffffffffffffffffffffffffffff1673ffffffffffffffffffffffffffffffffffffffff1681526020019081526020016000206000828152602001908152602001600020600061093a611653565b73ffffffffffffffffffffffffffffffffffffffff1673ffffffffffffffffffffffffffffffffffffffff16815260200190815260200160002060009054906101000a900460ff16156109c2576040517f08c379a00000000000000000000000000000000000000000000000000000000081526004016109b990611d35565b60405180910390fd5b6000600360008473ffffffffffffffffffffffffffffffffffffffff1673ffffffffffffffffffffffffffffffffffffffff1681526020019081526020016000208281548110610a1557610a14611a99565b5b90600052602060002090600302016000015411610a67576040517f08c379a0000000000000000000000000000000000000000000000000000000008152600401610a5e90611dc7565b60405180910390fd5b6001600360008473ffffffffffffffffffffffffffffffffffffffff1673ffffffffffffffffffffffffffffffffffffffff1681526020019081526020016000208281548110610aba57610ab9611a99565b5b90600052602060002090600302016001016000828254610ada9190611a65565b925050819055506001600860008473ffffffffffffffffffffffffffffffffffffffff1673ffffffffffffffffffffffffffffffffffffffff16815260200190815260200160002060008381526020019081526020016000206000610b3d611653565b73ffffffffffffffffffffffffffffffffffffffff1673ffffffffffffffffffffffffffffffffffffffff16815260200190815260200160002060006101000a81548160ff0219169083151502179055508173ffffffffffffffffffffffffffffffffffffffff16610bad611653565b73ffffffffffffffffffffffffffffffffffffffff167f57bb83c14f9d3f349bd0d5d662e957c987a4854456300b818e76c7978ea2e5b883604051610bf2919061192d565b60405180910390a35050565b60008060009054906101000a900473ffffffffffffffffffffffffffffffffffffffff16905090565b6001151560026000610c37611653565b73ffffffffffffffffffffffffffffffffffffffff1673ffffffffffffffffffffffffffffffffffffffff16815260200190815260200160002060009054906101000a900460ff16151514610cc1576040517f08c379a0000000000000000000000000000000000000000000000000000000008152600401610cb890611ca3565b60405180910390fd5b600073ffffffffffffffffffffffffffffffffffffffff166004600560008573ffffffffffffffffffffffffffffffffffffffff1673ffffffffffffffffffffffffffffffffffffffff1681526020019081526020016000205481548110610d2c57610d2b611a99565b5b906000526020600020906002020160010160009054906101000a900473ffffffffffffffffffffffffffffffffffffffff1673ffffffffffffffffffffffffffffffffffffffff1603610db4576040517f08c379a0000000000000000000000000000000000000000000000000000000008152600401610dab90611b4b565b60405180910390fd5b60008111610df7576040517f08c379a0000000000000000000000000000000000000000000000000000000008152600401610dee90611e59565b60405180910390fd5b6000604051806060016040528083815260200160008152602001600015158152509050600360008473ffffffffffffffffffffffffffffffffffffffff1673ffffffffffffffffffffffffffffffffffffffff168152602001908152602001600020819080600181540180825580915050600190039060005260206000209060030201600090919091909150600082015181600001556020820151816001015560408201518160020160006101000a81548160ff02191690831515021790555050508273ffffffffffffffffffffffffffffffffffffffff167fcbf2f8dcc2e57120df4e64e31e8bcb10fffef66c2a8f7e39ceb4061bb72c388583604051610eff919061192d565b60405180910390a2505050565b6001151560066000610f1c611653565b73ffffffffffffffffffffffffffffffffffffffff1673ffffffffffffffffffffffffffffffffffffffff16815260200190815260200160002060009054906101000a900460ff16151514610fa6576040517f08c379a0000000000000000000000000000000000000000000000000000000008152600401610f9d90611eeb565b60405180910390fd5b600754600260036000610fb7611653565b73ffffffffffffffffffffffffffffffffffffffff1673ffffffffffffffffffffffffffffffffffffffff168152602001908152602001600020838154811061100357611002611a99565b5b90600052602060002090600302016001015461101f9190611f0b565b1161105f576040517f08c379a000000000000000000000000000000000000000000000000000000000815260040161105690611fbf565b60405180910390fd5b6003600061106b611653565b73ffffffffffffffffffffffffffffffffffffffff1673ffffffffffffffffffffffffffffffffffffffff16815260200190815260200160002081815481106110b7576110b6611a99565b5b906000526020600020906003020160020160009054906101000a900460ff1615611116576040517f08c379a000000000000000000000000000000000000000000000000000000000815260040161110d9061202b565b60405180910390fd5b600060036000611124611653565b73ffffffffffffffffffffffffffffffffffffffff1673ffffffffffffffffffffffffffffffffffffffff16815260200190815260200160002082815481106111705761116f611a99565b5b9060005260206000209060030201600001549050600160009054906101000a900473ffffffffffffffffffffffffffffffffffffffff1673ffffffffffffffffffffffffffffffffffffffff166340c10f196111ca611653565b836040518363ffffffff1660e01b81526004016111e892919061204b565b600060405180830381600087803b15801561120257600080fd5b505af1158015611216573d6000803e3d6000fd5b50505050600160036000611228611653565b73ffffffffffffffffffffffffffffffffffffffff1673ffffffffffffffffffffffffffffffffffffffff168152602001908152602001600020838154811061127457611273611a99565b5b906000526020600020906003020160020160006101000a81548160ff0219169083151502179055506112a4611653565b73ffffffffffffffffffffffffffffffffffffffff167fcea3075acde4774a33609cbbcdc18b7f2e492e6c21502369ccb7d7dbac607c34826040516112e9919061192d565b60405180910390a25050565b60075481565b6113036115d5565b600073ffffffffffffffffffffffffffffffffffffffff168173ffffffffffffffffffffffffffffffffffffffff1603611372576040517f08c379a0000000000000000000000000000000000000000000000000000000008152600401611369906120e6565b60405180910390fd5b61137b8161165b565b50565b6006600061138a611653565b73ffffffffffffffffffffffffffffffffffffffff1673ffffffffffffffffffffffffffffffffffffffff16815260200190815260200160002060009054906101000a900460ff1615611412576040517f08c379a000000000000000000000000000000000000000000000000000000000815260040161140990612178565b60405180910390fd5b6000604051806060016040528083815260200161142d611653565b73ffffffffffffffffffffffffffffffffffffffff16815260200160001515815250905060048190806001815401808255809150506001900390600052602060002090600202016000909190919091506000820151816000015560208201518160010160006101000a81548173ffffffffffffffffffffffffffffffffffffffff021916908373ffffffffffffffffffffffffffffffffffffffff16021790555060408201518160010160146101000a81548160ff021916908315150217905550505060016004805490506115029190611bfd565b6005600061150e611653565b73ffffffffffffffffffffffffffffffffffffffff1673ffffffffffffffffffffffffffffffffffffffff1681526020019081526020016000208190555060016006600061155a611653565b73ffffffffffffffffffffffffffffffffffffffff1673ffffffffffffffffffffffffffffffffffffffff16815260200190815260200160002060006101000a81548160ff0219169083151502179055505050565b600160009054906101000a900473ffffffffffffffffffffffffffffffffffffffff1681565b6115dd611653565b73ffffffffffffffffffffffffffffffffffffffff166115fb610bfe565b73ffffffffffffffffffffffffffffffffffffffff1614611651576040517f08c379a0000000000000000000000000000000000000000000000000000000008152600401611648906121e4565b60405180910390fd5b565b600033905090565b60008060009054906101000a900473ffffffffffffffffffffffffffffffffffffffff169050816000806101000a81548173ffffffffffffffffffffffffffffffffffffffff021916908373ffffffffffffffffffffffffffffffffffffffff1602179055508173ffffffffffffffffffffffffffffffffffffffff168173ffffffffffffffffffffffffffffffffffffffff167f8be0079c531659141344cd1fd0a4f28419497f9722a3daafe3b4186f6b6457e060405160405180910390a35050565b600080fd5b600073ffffffffffffffffffffffffffffffffffffffff82169050919050565b600061174f82611724565b9050919050565b61175f81611744565b811461176a57600080fd5b50565b60008135905061177c81611756565b92915050565b6000602082840312156117985761179761171f565b5b60006117a68482850161176d565b91505092915050565b60008115159050919050565b6117c4816117af565b82525050565b60006020820190506117df60008301846117bb565b92915050565b6000819050919050565b6117f8816117e5565b811461180357600080fd5b50565b600081359050611815816117ef565b92915050565b600080604083850312156118325761183161171f565b5b60006118408582860161176d565b925050602061185185828601611806565b9150509250929050565b611864816117e5565b82525050565b600060608201905061187f600083018661185b565b61188c602083018561185b565b61189960408301846117bb565b949350505050565b6000602082840312156118b7576118b661171f565b5b60006118c584828501611806565b91505092915050565b6000819050919050565b6118e1816118ce565b82525050565b6118f081611744565b82525050565b600060608201905061190b60008301866118d8565b61191860208301856118e7565b61192560408301846117bb565b949350505050565b6000602082019050611942600083018461185b565b92915050565b600060208201905061195d60008301846118e7565b92915050565b61196c816118ce565b811461197757600080fd5b50565b60008135905061198981611963565b92915050565b6000602082840312156119a5576119a461171f565b5b60006119b38482850161197a565b91505092915050565b6000819050919050565b60006119e16119dc6119d784611724565b6119bc565b611724565b9050919050565b60006119f3826119c6565b9050919050565b6000611a05826119e8565b9050919050565b611a15816119fa565b82525050565b6000602082019050611a306000830184611a0c565b92915050565b7f4e487b7100000000000000000000000000000000000000000000000000000000600052601160045260246000fd5b6000611a70826117e5565b9150611a7b836117e5565b9250828201905080821115611a9357611a92611a36565b5b92915050565b7f4e487b7100000000000000000000000000000000000000000000000000000000600052603260045260246000fd5b600082825260208201905092915050565b7f436861696e446f6e6f724875623a20446f6e6f72206e6f74207265676973746560008201527f7265640000000000000000000000000000000000000000000000000000000000602082015250565b6000611b35602383611ac8565b9150611b4082611ad9565b604082019050919050565b60006020820190508181036000830152611b6481611b28565b9050919050565b7f436861696e446f6e6f724875623a20446f6e6f7220616c72656164792064656c60008201527f6574656400000000000000000000000000000000000000000000000000000000602082015250565b6000611bc7602483611ac8565b9150611bd282611b6b565b604082019050919050565b60006020820190508181036000830152611bf681611bba565b9050919050565b6000611c08826117e5565b9150611c13836117e5565b9250828203905081811115611c2b57611c2a611a36565b5b92915050565b7f436861696e446f6e6f724875623a2053656e646572206973206e6f742061206d60008201527f65646963616c20696e737469747574696f6e0000000000000000000000000000602082015250565b6000611c8d603283611ac8565b9150611c9882611c31565b604082019050919050565b60006020820190508181036000830152611cbc81611c80565b9050919050565b7f436861696e446f6e6f724875623a20496e737469747574696f6e20686173206160008201527f6c726561647920617070726f766564207468697320646f6e6174696f6e000000602082015250565b6000611d1f603d83611ac8565b9150611d2a82611cc3565b604082019050919050565b60006020820190508181036000830152611d4e81611d12565b9050919050565b7f436861696e446f6e6f724875623a20446f6e6174696f6e20646f6573206e6f7460008201527f2065786973740000000000000000000000000000000000000000000000000000602082015250565b6000611db1602683611ac8565b9150611dbc82611d55565b604082019050919050565b60006020820190508181036000830152611de081611da4565b9050919050565b7f436861696e446f6e6f724875623a20416d6f756e74206d75737420626520677260008201527f6561746572207468616e20300000000000000000000000000000000000000000602082015250565b6000611e43602c83611ac8565b9150611e4e82611de7565b604082019050919050565b60006020820190508181036000830152611e7281611e36565b9050919050565b7f436861696e446f6e6f724875623a2053656e646572206973206e6f742061206460008201527f6f6e6f7200000000000000000000000000000000000000000000000000000000602082015250565b6000611ed5602483611ac8565b9150611ee082611e79565b604082019050919050565b60006020820190508181036000830152611f0481611ec8565b9050919050565b6000611f16826117e5565b9150611f21836117e5565b9250828202611f2f816117e5565b91508282048414831517611f4657611f45611a36565b5b5092915050565b7f436861696e446f6e6f724875623a204e6f7420656e6f75676820617070726f7660008201527f616c730000000000000000000000000000000000000000000000000000000000602082015250565b6000611fa9602383611ac8565b9150611fb482611f4d565b604082019050919050565b60006020820190508181036000830152611fd881611f9c565b9050919050565b7f436861696e446f6e6f724875623a20416c726561647920636c61696d65640000600082015250565b6000612015601e83611ac8565b915061202082611fdf565b602082019050919050565b6000602082019050818103600083015261204481612008565b9050919050565b600060408201905061206060008301856118e7565b61206d602083018461185b565b9392505050565b7f4f776e61626c653a206e6577206f776e657220697320746865207a65726f206160008201527f6464726573730000000000000000000000000000000000000000000000000000602082015250565b60006120d0602683611ac8565b91506120db82612074565b604082019050919050565b600060208201905081810360008301526120ff816120c3565b9050919050565b7f436861696e446f6e6f724875623a20446f6e6f7220616c72656164792072656760008201527f6973746572656400000000000000000000000000000000000000000000000000602082015250565b6000612162602783611ac8565b915061216d82612106565b604082019050919050565b6000602082019050818103600083015261219181612155565b9050919050565b7f4f776e61626c653a2063616c6c6572206973206e6f7420746865206f776e6572600082015250565b60006121ce602083611ac8565b91506121d982612198565b602082019050919050565b600060208201905081810360008301526121fd816121c1565b905091905056fea2646970667358221220db806991dcde374b639ba68b9853652d1a57155715be5941f12fbe692e4d01ee64736f6c63430008130033",
  "linkReferences": {},
  "deployedLinkReferences": {}
}