{
  "_format": "hh-sol-artifact-1",
  "contractName": "ChainDonorMarketplace",
  "sourceName": "contracts/ChainDonorMarketplace.sol",
  "abi": [
    {
      "inputs": [
        {
          "internalType": "address",
          "name": "_tokenAddress",
          "type": "address"
        }
      ],
      "stateMutability": "nonpayable",
      "type": "constructor"
    },
    {
      "anonymous": false,
      "inputs": [
        {
          "indexed": true,
          "internalType": "address",
          "name": "charity",
          "type": "address"
        }
      ],
      "name": "CharityAdded",
      "type": "event"
    },
    {
      "anonymous": false,
      "inputs": [
        {
          "indexed": true,
          "internalType": "address",
          "name": "charity",
          "type": "address"
        }
      ],
      "name": "CharityRemoved",
      "type": "event"
    },
    {
      "anonymous": false,
      "inputs": [
        {
          "indexed": true,
          "internalType": "string",
          "name": "name",
          "type": "string"
        },
        {
          "indexed": true,
          "internalType": "uint256",
          "name": "cost",
          "type": "uint256"
        },
        {
          "indexed": true,
          "internalType": "address",
          "name": "charity",
          "type": "address"
        }
      ],
      "name": "ItemAdded",
      "type": "event"
    },
    {
      "anonymous": false,
      "inputs": [
        {
          "indexed": true,
          "internalType": "address",
          "name": "donor",
          "type": "address"
        },
        {
          "indexed": true,
          "internalType": "uint256",
          "name": "itemId",
          "type": "uint256"
        }
      ],
      "name": "ItemPurchased",
      "type": "event"
    },
    {
      "anonymous": false,
      "inputs": [
        {
          "indexed": true,
          "internalType": "address",
          "name": "previousOwner",
          "type": "address"
        },
        {
          "indexed": true,
          "internalType": "address",
          "name": "newOwner",
          "type": "address"
        }
      ],
      "name": "OwnershipTransferred",
      "type": "event"
    },
    {
      "inputs": [
        {
          "internalType": "address",
          "name": "_charity",
          "type": "address"
        }
      ],
      "name": "addCharity",
      "outputs": [],
      "stateMutability": "nonpayable",
      "type": "function"
    },
    {
      "inputs": [
        {
          "internalType": "address",
          "name": "",
          "type": "address"
        },
        {
          "internalType": "address",
          "name": "",
          "type": "address"
        }
      ],
      "name": "addCharityVotes",
      "outputs": [
        {
          "internalType": "bool",
          "name": "",
          "type": "bool"
        }
      ],
      "stateMutability": "view",
      "type": "function"
    },
    {
      "inputs": [
        {
          "internalType": "string",
          "name": "_name",
          "type": "string"
        },
        {
          "internalType": "uint256",
          "name": "_cost",
          "type": "uint256"
        }
      ],
      "name": "addItem",
      "outputs": [],
      "stateMutability": "nonpayable",
      "type": "function"
    },
    {
      "inputs": [
        {
          "internalType": "address",
          "name": "_charity",
          "type": "address"
        }
      ],
      "name": "approveAddCharity",
      "outputs": [],
      "stateMutability": "nonpayable",
      "type": "function"
    },
    {
      "inputs": [
        {
          "internalType": "address",
          "name": "_charity",
          "type": "address"
        }
      ],
      "name": "approveRemoveCharity",
      "outputs": [],
      "stateMutability": "nonpayable",
      "type": "function"
    },
    {
      "inputs": [
        {
          "internalType": "address",
          "name": "",
          "type": "address"
        }
      ],
      "name": "charities",
      "outputs": [
        {
          "internalType": "bool",
          "name": "",
          "type": "bool"
        }
      ],
      "stateMutability": "view",
      "type": "function"
    },
    {
      "inputs": [
        {
          "internalType": "address",
          "name": "",
          "type": "address"
        }
      ],
      "name": "charityCandidates",
      "outputs": [
        {
          "internalType": "bool",
          "name": "",
          "type": "bool"
        }
      ],
      "stateMutability": "view",
      "type": "function"
    },
    {
      "inputs": [
        {
          "internalType": "uint256",
          "name": "",
          "type": "uint256"
        }
      ],
      "name": "items",
      "outputs": [
        {
          "internalType": "string",
          "name": "name",
          "type": "string"
        },
        {
          "internalType": "uint256",
          "name": "cost",
          "type": "uint256"
        },
        {
          "internalType": "address",
          "name": "charity",
          "type": "address"
        },
        {
          "internalType": "bool",
          "name": "purchased",
          "type": "bool"
        },
        {
          "internalType": "address",
          "name": "purchasedBy",
          "type": "address"
        }
      ],
      "stateMutability": "view",
      "type": "function"
    },
    {
      "inputs": [],
      "name": "owner",
      "outputs": [
        {
          "internalType": "address",
          "name": "",
          "type": "address"
        }
      ],
      "stateMutability": "view",
      "type": "function"
    },
    {
      "inputs": [
        {
          "internalType": "uint256",
          "name": "_itemId",
          "type": "uint256"
        }
      ],
      "name": "purchaseItem",
      "outputs": [],
      "stateMutability": "nonpayable",
      "type": "function"
    },
    {
      "inputs": [
        {
          "internalType": "address",
          "name": "",
          "type": "address"
        },
        {
          "internalType": "address",
          "name": "",
          "type": "address"
        }
      ],
      "name": "removeCharityVotes",
      "outputs": [
        {
          "internalType": "bool",
          "name": "",
          "type": "bool"
        }
      ],
      "stateMutability": "view",
      "type": "function"
    },
    {
      "inputs": [],
      "name": "renounceOwnership",
      "outputs": [],
      "stateMutability": "nonpayable",
      "type": "function"
    },
    {
      "inputs": [],
      "name": "token",
      "outputs": [
        {
          "internalType": "contract BloodToken",
          "name": "",
          "type": "address"
        }
      ],
      "stateMutability": "view",
      "type": "function"
    },
    {
      "inputs": [],
      "name": "totalCharities",
      "outputs": [
        {
          "internalType": "uint256",
          "name": "",
          "type": "uint256"
        }
      ],
      "stateMutability": "view",
      "type": "function"
    },
    {
      "inputs": [
        {
          "internalType": "address",
          "name": "newOwner",
          "type": "address"
        }
      ],
      "name": "transferOwnership",
      "outputs": [],
      "stateMutability": "nonpayable",
      "type": "function"
    }
  ],
  "bytecode": "0x60806040523480156200001157600080fd5b5060405162002408380380620024088339818101604052810190620000379190620001d5565b620000576200004b6200009f60201b60201c565b620000a760201b60201c565b80600160006101000a81548173ffffffffffffffffffffffffffffffffffffffff021916908373ffffffffffffffffffffffffffffffffffffffff1602179055505062000207565b600033905090565b60008060009054906101000a900473ffffffffffffffffffffffffffffffffffffffff169050816000806101000a81548173ffffffffffffffffffffffffffffffffffffffff021916908373ffffffffffffffffffffffffffffffffffffffff1602179055508173ffffffffffffffffffffffffffffffffffffffff168173ffffffffffffffffffffffffffffffffffffffff167f8be0079c531659141344cd1fd0a4f28419497f9722a3daafe3b4186f6b6457e060405160405180910390a35050565b600080fd5b600073ffffffffffffffffffffffffffffffffffffffff82169050919050565b60006200019d8262000170565b9050919050565b620001af8162000190565b8114620001bb57600080fd5b50565b600081519050620001cf81620001a4565b92915050565b600060208284031215620001ee57620001ed6200016b565b5b6000620001fe84828501620001be565b91505092915050565b6121f180620002176000396000f3fe608060405234801561001057600080fd5b50600436106100f55760003560e01c8063870eda2911610097578063d38ea5bf11610066578063d38ea5bf14610286578063f2fde38b146102a2578063f4fbace8146102be578063fc0c546a146102dc576100f5565b8063870eda29146101e85780638da5cb5b14610204578063b857ebbc14610222578063bfb231d214610252576100f5565b806362d6bbdf116100d357806362d6bbdf14610176578063715018a61461019257806378b14f0a1461019c57806383999b67146101b8576100f5565b80632478239a146100fa5780633b3b9fc81461012a57806357221fd01461015a575b600080fd5b610114600480360381019061010f9190611420565b6102fa565b6040516101219190611468565b60405180910390f35b610144600480360381019061013f9190611420565b61031a565b6040516101519190611468565b60405180910390f35b610174600480360381019061016f9190611420565b61033a565b005b610190600480360381019061018b91906115ff565b61055e565b005b61019a6107af565b005b6101b660048036038101906101b19190611420565b6107c3565b005b6101d260048036038101906101cd919061165b565b6108b3565b6040516101df9190611468565b60405180910390f35b61020260048036038101906101fd9190611420565b6108e2565b005b61020c610b93565b60405161021991906116aa565b60405180910390f35b61023c6004803603810190610237919061165b565b610bbc565b6040516102499190611468565b60405180910390f35b61026c600480360381019061026791906116c5565b610beb565b60405161027d959493929190611780565b60405180910390f35b6102a0600480360381019061029b91906116c5565b610d06565b005b6102bc60048036038101906102b79190611420565b610fac565b005b6102c661102f565b6040516102d391906117da565b60405180910390f35b6102e4611035565b6040516102f19190611854565b60405180910390f35b60026020528060005260406000206000915054906101000a900460ff1681565b60036020528060005260406000206000915054906101000a900460ff1681565b6002600061034661105b565b73ffffffffffffffffffffffffffffffffffffffff1673ffffffffffffffffffffffffffffffffffffffff16815260200190815260200160002060009054906101000a900460ff166103cd576040517f08c379a00000000000000000000000000000000000000000000000000000000081526004016103c4906118e1565b60405180910390fd5b600260008273ffffffffffffffffffffffffffffffffffffffff1673ffffffffffffffffffffffffffffffffffffffff16815260200190815260200160002060009054906101000a900460ff16610459576040517f08c379a000000000000000000000000000000000000000000000000000000000815260040161045090611973565b60405180910390fd5b6001600560008373ffffffffffffffffffffffffffffffffffffffff1673ffffffffffffffffffffffffffffffffffffffff16815260200190815260200160002060006104a461105b565b73ffffffffffffffffffffffffffffffffffffffff1673ffffffffffffffffffffffffffffffffffffffff16815260200190815260200160002060006101000a81548160ff0219169083151502179055506006546002610541600560008573ffffffffffffffffffffffffffffffffffffffff1673ffffffffffffffffffffffffffffffffffffffff168152602001908152602001600020611063565b61054b91906119c2565b111561055b5761055a816110fc565b5b50565b6002600061056a61105b565b73ffffffffffffffffffffffffffffffffffffffff1673ffffffffffffffffffffffffffffffffffffffff16815260200190815260200160002060009054906101000a900460ff166105f1576040517f08c379a00000000000000000000000000000000000000000000000000000000081526004016105e8906118e1565b60405180910390fd5b60076040518060a0016040528084815260200183815260200161061261105b565b73ffffffffffffffffffffffffffffffffffffffff168152602001600015158152602001600073ffffffffffffffffffffffffffffffffffffffff168152509080600181540180825580915050600190039060005260206000209060040201600090919091909150600082015181600001908161068f9190611c06565b506020820151816001015560408201518160020160006101000a81548173ffffffffffffffffffffffffffffffffffffffff021916908373ffffffffffffffffffffffffffffffffffffffff16021790555060608201518160020160146101000a81548160ff02191690831515021790555060808201518160030160006101000a81548173ffffffffffffffffffffffffffffffffffffffff021916908373ffffffffffffffffffffffffffffffffffffffff160217905550505061075261105b565b73ffffffffffffffffffffffffffffffffffffffff1681836040516107779190611d14565b60405180910390207f86c54adc47ec3a71c36e96780c5a75a8c40d00b98b1e4c84e4831d72ca4969fe60405160405180910390a45050565b6107b76111b4565b6107c16000611232565b565b6107cb6111b4565b600260008273ffffffffffffffffffffffffffffffffffffffff1673ffffffffffffffffffffffffffffffffffffffff16815260200190815260200160002060009054906101000a900460ff1615610858576040517f08c379a000000000000000000000000000000000000000000000000000000000815260040161084f90611d9d565b60405180910390fd5b6001600360008373ffffffffffffffffffffffffffffffffffffffff1673ffffffffffffffffffffffffffffffffffffffff16815260200190815260200160002060006101000a81548160ff02191690831515021790555050565b60056020528160005260406000206020528060005260406000206000915091509054906101000a900460ff1681565b600260006108ee61105b565b73ffffffffffffffffffffffffffffffffffffffff1673ffffffffffffffffffffffffffffffffffffffff16815260200190815260200160002060009054906101000a900460ff16610975576040517f08c379a000000000000000000000000000000000000000000000000000000000815260040161096c906118e1565b60405180910390fd5b600260008273ffffffffffffffffffffffffffffffffffffffff1673ffffffffffffffffffffffffffffffffffffffff16815260200190815260200160002060009054906101000a900460ff1615610a02576040517f08c379a00000000000000000000000000000000000000000000000000000000081526004016109f990611e2f565b60405180910390fd5b600360008273ffffffffffffffffffffffffffffffffffffffff1673ffffffffffffffffffffffffffffffffffffffff16815260200190815260200160002060009054906101000a900460ff16610a8e576040517f08c379a0000000000000000000000000000000000000000000000000000000008152600401610a8590611973565b60405180910390fd5b6001600460008373ffffffffffffffffffffffffffffffffffffffff1673ffffffffffffffffffffffffffffffffffffffff1681526020019081526020016000206000610ad961105b565b73ffffffffffffffffffffffffffffffffffffffff1673ffffffffffffffffffffffffffffffffffffffff16815260200190815260200160002060006101000a81548160ff0219169083151502179055506006546002610b76600460008573ffffffffffffffffffffffffffffffffffffffff1673ffffffffffffffffffffffffffffffffffffffff168152602001908152602001600020611063565b610b8091906119c2565b1115610b9057610b8f816112f6565b5b50565b60008060009054906101000a900473ffffffffffffffffffffffffffffffffffffffff16905090565b60046020528160005260406000206020528060005260406000206000915091509054906101000a900460ff1681565b60078181548110610bfb57600080fd5b9060005260206000209060040201600091509050806000018054610c1e90611a33565b80601f0160208091040260200160405190810160405280929190818152602001828054610c4a90611a33565b8015610c975780601f10610c6c57610100808354040283529160200191610c97565b820191906000526020600020905b815481529060010190602001808311610c7a57829003601f168201915b5050505050908060010154908060020160009054906101000a900473ffffffffffffffffffffffffffffffffffffffff16908060020160149054906101000a900460ff16908060030160009054906101000a900473ffffffffffffffffffffffffffffffffffffffff16905085565b6007805490508110610d4d576040517f08c379a0000000000000000000000000000000000000000000000000000000008152600401610d4490611ec1565b60405180910390fd5b600060078281548110610d6357610d62611ee1565b5b906000526020600020906004020190508060010154600160009054906101000a900473ffffffffffffffffffffffffffffffffffffffff1673ffffffffffffffffffffffffffffffffffffffff166370a08231610dbe61105b565b6040518263ffffffff1660e01b8152600401610dda91906116aa565b602060405180830381865afa158015610df7573d6000803e3d6000fd5b505050506040513d601f19601f82011682018060405250810190610e1b9190611f25565b1015610e5c576040517f08c379a0000000000000000000000000000000000000000000000000000000008152600401610e5390611fc4565b60405180910390fd5b600160009054906101000a900473ffffffffffffffffffffffffffffffffffffffff1673ffffffffffffffffffffffffffffffffffffffff166379cc6790610ea261105b565b83600101546040518363ffffffff1660e01b8152600401610ec4929190611fe4565b600060405180830381600087803b158015610ede57600080fd5b505af1158015610ef2573d6000803e3d6000fd5b5050505060018160020160146101000a81548160ff021916908315150217905550610f1b61105b565b8160030160006101000a81548173ffffffffffffffffffffffffffffffffffffffff021916908373ffffffffffffffffffffffffffffffffffffffff16021790555081610f6661105b565b73ffffffffffffffffffffffffffffffffffffffff167f792fe07c0f3ce4ef42df79c4a2b07925168cddbaabf7a7ef1351f027a376031360405160405180910390a35050565b610fb46111b4565b600073ffffffffffffffffffffffffffffffffffffffff168173ffffffffffffffffffffffffffffffffffffffff1603611023576040517f08c379a000000000000000000000000000000000000000000000000000000000815260040161101a9061207f565b60405180910390fd5b61102c81611232565b50565b60065481565b600160009054906101000a900473ffffffffffffffffffffffffffffffffffffffff1681565b600033905090565b6000806000905060005b6006548110156110f25783600061108261105b565b73ffffffffffffffffffffffffffffffffffffffff1673ffffffffffffffffffffffffffffffffffffffff16815260200190815260200160002060009054906101000a900460ff16156110df576001826110dc919061209f565b91505b80806110ea906120d3565b91505061106d565b5080915050919050565b6000600260008373ffffffffffffffffffffffffffffffffffffffff1673ffffffffffffffffffffffffffffffffffffffff16815260200190815260200160002060006101000a81548160ff021916908315150217905550600160066000828254611167919061211b565b925050819055508073ffffffffffffffffffffffffffffffffffffffff167f7db8df158d85e9475e8dd97a5e3e193c67dc6d977d2fc4f7321049b6c0b70e9360405160405180910390a250565b6111bc61105b565b73ffffffffffffffffffffffffffffffffffffffff166111da610b93565b73ffffffffffffffffffffffffffffffffffffffff1614611230576040517f08c379a00000000000000000000000000000000000000000000000000000000081526004016112279061219b565b60405180910390fd5b565b60008060009054906101000a900473ffffffffffffffffffffffffffffffffffffffff169050816000806101000a81548173ffffffffffffffffffffffffffffffffffffffff021916908373ffffffffffffffffffffffffffffffffffffffff1602179055508173ffffffffffffffffffffffffffffffffffffffff168173ffffffffffffffffffffffffffffffffffffffff167f8be0079c531659141344cd1fd0a4f28419497f9722a3daafe3b4186f6b6457e060405160405180910390a35050565b6001600260008373ffffffffffffffffffffffffffffffffffffffff1673ffffffffffffffffffffffffffffffffffffffff16815260200190815260200160002060006101000a81548160ff021916908315150217905550600160066000828254611361919061209f565b925050819055508073ffffffffffffffffffffffffffffffffffffffff167fc17dc19a503d796a336a016f10743118db2bdadb16ac4c19aff016075609863560405160405180910390a250565b6000604051905090565b600080fd5b600080fd5b600073ffffffffffffffffffffffffffffffffffffffff82169050919050565b60006113ed826113c2565b9050919050565b6113fd816113e2565b811461140857600080fd5b50565b60008135905061141a816113f4565b92915050565b600060208284031215611436576114356113b8565b5b60006114448482850161140b565b91505092915050565b60008115159050919050565b6114628161144d565b82525050565b600060208201905061147d6000830184611459565b92915050565b600080fd5b600080fd5b6000601f19601f8301169050919050565b7f4e487b7100000000000000000000000000000000000000000000000000000000600052604160045260246000fd5b6114d68261148d565b810181811067ffffffffffffffff821117156114f5576114f461149e565b5b80604052505050565b60006115086113ae565b905061151482826114cd565b919050565b600067ffffffffffffffff8211156115345761153361149e565b5b61153d8261148d565b9050602081019050919050565b82818337600083830152505050565b600061156c61156784611519565b6114fe565b90508281526020810184848401111561158857611587611488565b5b61159384828561154a565b509392505050565b600082601f8301126115b0576115af611483565b5b81356115c0848260208601611559565b91505092915050565b6000819050919050565b6115dc816115c9565b81146115e757600080fd5b50565b6000813590506115f9816115d3565b92915050565b60008060408385031215611616576116156113b8565b5b600083013567ffffffffffffffff811115611634576116336113bd565b5b6116408582860161159b565b9250506020611651858286016115ea565b9150509250929050565b60008060408385031215611672576116716113b8565b5b60006116808582860161140b565b92505060206116918582860161140b565b9150509250929050565b6116a4816113e2565b82525050565b60006020820190506116bf600083018461169b565b92915050565b6000602082840312156116db576116da6113b8565b5b60006116e9848285016115ea565b91505092915050565b600081519050919050565b600082825260208201905092915050565b60005b8381101561172c578082015181840152602081019050611711565b60008484015250505050565b6000611743826116f2565b61174d81856116fd565b935061175d81856020860161170e565b6117668161148d565b840191505092915050565b61177a816115c9565b82525050565b600060a082019050818103600083015261179a8188611738565b90506117a96020830187611771565b6117b6604083018661169b565b6117c36060830185611459565b6117d0608083018461169b565b9695505050505050565b60006020820190506117ef6000830184611771565b92915050565b6000819050919050565b600061181a611815611810846113c2565b6117f5565b6113c2565b9050919050565b600061182c826117ff565b9050919050565b600061183e82611821565b9050919050565b61184e81611833565b82525050565b60006020820190506118696000830184611845565b92915050565b7f436861696e446f6e6f724d61726b6574706c6163653a2053656e64657220697360008201527f206e6f7420612063686172697479000000000000000000000000000000000000602082015250565b60006118cb602e836116fd565b91506118d68261186f565b604082019050919050565b600060208201905081810360008301526118fa816118be565b9050919050565b7f436861696e446f6e6f724d61726b6574706c6163653a2043686172697479206460008201527f6f6573206e6f7420657869737400000000000000000000000000000000000000602082015250565b600061195d602d836116fd565b915061196882611901565b604082019050919050565b6000602082019050818103600083015261198c81611950565b9050919050565b7f4e487b7100000000000000000000000000000000000000000000000000000000600052601160045260246000fd5b60006119cd826115c9565b91506119d8836115c9565b92508282026119e6816115c9565b915082820484148315176119fd576119fc611993565b5b5092915050565b7f4e487b7100000000000000000000000000000000000000000000000000000000600052602260045260246000fd5b60006002820490506001821680611a4b57607f821691505b602082108103611a5e57611a5d611a04565b5b50919050565b60008190508160005260206000209050919050565b60006020601f8301049050919050565b600082821b905092915050565b600060088302611ac67fffffffffffffffffffffffffffffffffffffffffffffffffffffffffffffffff82611a89565b611ad08683611a89565b95508019841693508086168417925050509392505050565b6000611b03611afe611af9846115c9565b6117f5565b6115c9565b9050919050565b6000819050919050565b611b1d83611ae8565b611b31611b2982611b0a565b848454611a96565b825550505050565b600090565b611b46611b39565b611b51818484611b14565b505050565b5b81811015611b7557611b6a600082611b3e565b600181019050611b57565b5050565b601f821115611bba57611b8b81611a64565b611b9484611a79565b81016020851015611ba3578190505b611bb7611baf85611a79565b830182611b56565b50505b505050565b600082821c905092915050565b6000611bdd60001984600802611bbf565b1980831691505092915050565b6000611bf68383611bcc565b9150826002028217905092915050565b611c0f826116f2565b67ffffffffffffffff811115611c2857611c2761149e565b5b611c328254611a33565b611c3d828285611b79565b600060209050601f831160018114611c705760008415611c5e578287015190505b611c688582611bea565b865550611cd0565b601f198416611c7e86611a64565b60005b82811015611ca657848901518255600182019150602085019450602081019050611c81565b86831015611cc35784890151611cbf601f891682611bcc565b8355505b6001600288020188555050505b505050505050565b600081905092915050565b6000611cee826116f2565b611cf88185611cd8565b9350611d0881856020860161170e565b80840191505092915050565b6000611d208284611ce3565b915081905092915050565b7f436861696e446f6e6f724d61726b6574706c6163653a2043686172697479206160008201527f6c72656164792065786973747300000000000000000000000000000000000000602082015250565b6000611d87602d836116fd565b9150611d9282611d2b565b604082019050919050565b60006020820190508181036000830152611db681611d7a565b9050919050565b7f436861696e446f6e6f724d61726b6574706c6163653a2043686172697479206160008201527f6c726561647920617070726f7665640000000000000000000000000000000000602082015250565b6000611e19602f836116fd565b9150611e2482611dbd565b604082019050919050565b60006020820190508181036000830152611e4881611e0c565b9050919050565b7f436861696e446f6e6f724d61726b6574706c6163653a20496e76616c6964206960008201527f74656d2049440000000000000000000000000000000000000000000000000000602082015250565b6000611eab6026836116fd565b9150611eb682611e4f565b604082019050919050565b60006020820190508181036000830152611eda81611e9e565b9050919050565b7f4e487b7100000000000000000000000000000000000000000000000000000000600052603260045260246000fd5b600081519050611f1f816115d3565b92915050565b600060208284031215611f3b57611f3a6113b8565b5b6000611f4984828501611f10565b91505092915050565b7f436861696e446f6e6f724d61726b6574706c6163653a20496e7375666669636960008201527f656e7420426c6f6f64546f6b656e730000000000000000000000000000000000602082015250565b6000611fae602f836116fd565b9150611fb982611f52565b604082019050919050565b60006020820190508181036000830152611fdd81611fa1565b9050919050565b6000604082019050611ff9600083018561169b565b6120066020830184611771565b9392505050565b7f4f776e61626c653a206e6577206f776e657220697320746865207a65726f206160008201527f6464726573730000000000000000000000000000000000000000000000000000602082015250565b60006120696026836116fd565b91506120748261200d565b604082019050919050565b600060208201905081810360008301526120988161205c565b9050919050565b60006120aa826115c9565b91506120b5836115c9565b92508282019050808211156120cd576120cc611993565b5b92915050565b60006120de826115c9565b91507fffffffffffffffffffffffffffffffffffffffffffffffffffffffffffffffff82036121105761210f611993565b5b600182019050919050565b6000612126826115c9565b9150612131836115c9565b925082820390508181111561214957612148611993565b5b92915050565b7f4f776e61626c653a2063616c6c6572206973206e6f7420746865206f776e6572600082015250565b60006121856020836116fd565b91506121908261214f565b602082019050919050565b600060208201905081810360008301526121b481612178565b905091905056fea264697066735822122016e2c2581d323e3b58ba243b5569a1c15f2f9701ffe98cb66264ba360ede3d3f64736f6c63430008130033",
  "linkReferences": {},
  "deployedLinkReferences": {}
}